:060000000A128A11A52F6F
:100F4A0083010A128A11C52FF201F3017108730293
:100F5A00031DB12F7008720203180800BA270A127B
:100F6A008A11F20A0319F30AAB2FD6308316031338
:100F7A0081007A30831281000B1DC12F0B110800EA
:100F8A00831603178801890103138501FF30860040
:100F9A00870188018901F501F50AF40175088312B0
:100FAA0085000A300310F50DF000F1010A128A11CA
:100FBA00A9270A128A1175088312031385000730BC
:100FCA00F40A7402031CD32FF401750885000A3051
:100FDA000310F50CF000F1010A128A11A9270A126E
:100FEA008A1175088312031385000730F40A740204
:060FFA000318D02FEA2FBE
:04400E00D4E0FFFFFC
:00000001FF
