:060000000A128A15F9291D
:10000E008316AE005330A40083125208D20A840025
:10001E000A128A150A200A128A118316B600B60829
:10002E000319B62B3608253A031921282E08840009
:10003E003608B22BA501A6018312520884000A12BB
:10004E008A150A200A128A112E3A031D6C2883166D
:10005E0026178312D20A8316B101B20183125208F7
:10006E0084000A128A150A200A128A11B6260A126A
:10007E008A11031C732883163208F1003108F00030
:10008E000A30F200F3010A128A1519220A128A1195
:10009E008312520884000A128A150A200A128A1143
:1000AE007007D6000030031801307107D7005608CC
:1000BE00D03E8316B100831257080318013EFF3E4F
:1000CE008316B2008312D20A35288316B101B2010B
:1000DE00261673282615852883125208D20A840004
:1000EE000A128A150A200A128A118316B600003ADD
:1000FE000319B62B663A031971280B2883120730A1
:10010E00D601831626058312D70056040319762BC3
:10011E008316261E95280630B100B20124088400ED
:10012E0083130008B300840A0008B400840A000890
:10013E00B5000330A4073308F0003408F100350889
:10014E00F200F301F401F5018A260A128A1103184E
:10015E00C1283308F0003408F1003508F200C42637
:10016E000A128A117008B3007108B4007208B50043
:10017E000330A504AF01B00135083404330403196C
:10018E005A29B330840000088312D600840A00086E
:10019E00D700840A0008D800840A0008D9000F305E
:1001AE000310D90CD80CD70CD60CFF3E031DD72844
:1001BE0057088316B000831256088316AF0082309C
:1001CE00B001AF07031CB003FF30AF07031CB00331
:1001DE000330F000F1013008F3002F08F2000A128C
:1001EE008A1519220A128A117108B0007008AF0020
:1001FE000A30F600F7013008F9002F08F8004D25F7
:10020E000A128A117708B0007608AF00B01F1329C2
:10021E00FF30AF07031CB0032F03FF3ABB230A12B4
:10022E008A1103270A128A1128270A128A118316A5
:10023E0027088312B000831628088312B100831694
:10024E0029088312B200CF250A128A112D088316AF
:10025E00A70083122E088316A80083122F08831678
:10026E00A90066270A128A118030F301F4003F308C
:10027E00F5008A260A128A1103184A29FF30AF07A1
:10028E00031CB0035A2966270A128A112030F30183
:10029E00F4004130F5008A260A128A11031C5A29ED
:1002AE00AF0A0319B00A3208803AFF0080307F028D
:1002BE00031D63290D30310203188E299B27310847
:1002CE000A128A15AE260A128A114808BC0049087D
:1002DE00BD004A08BE00831633088312BF00831682
:1002EE0034088312C000831635088312C1000A1227
:1002FE008A15C4240A128A113C088316B30083128D
:10030E003D088316B40083123E088316B5009B2762
:10031E003008803AFF0080307F02031D98290A3092
:10032E002F020318B9299B27350834043304031907
:10033E00F82933081D270A128A119E270A128A11DC
:10034E002308220421042004031DF82983163008F3
:10035E00803AFF0080307F02031DB72902302F0242
:10036E00031CF8299B2766270A128A117030F300A6
:10037E008930F4004030F5008A260A128A110318DB
:10038E00CA29F730CB29F830AF07031CB0032F086A
:10039E00BB230A128A110327F0003408F100350836
:1003AE00F2002708F3002808F4002908F5000A12C5
:1003BE008A15D8220A128A1173088316A3007208AE
:1003CE00A2007108A1007008A0002308AD00220849
:1003DE00AC002108AB002008AA00B301B401B5019E
:1003EE00352A9B2733081D270A128A119E270A12C7
:1003FE008A11DE268316AA002D08FB002C08FA00AF
:10040E002B08F9002A08F8000A128A1532220A125D
:10041E008A1178088312C8007908C9007A08CA00C0
:10042E00831633088312CB00831634088312CC0054
:10043E00831635088312CD000A128A15AE240A12CD
:10044E008A1148088316B300831249088316B40034
:10045E0083124A088316B500AF01B001B601B60A81
:10046E00CC260A128A150A200A128A11D7000A12FD
:10047E008A150A200A128A11D8000A128A150A2031
:10048E000A128A11D9000A128A150A200A128A1132
:10049E00DA0083162D02031D642A8312590883166F
:1004AE002C02031D642A8312580883162B02031D87
:1004BE00642A8312570883162A02031C6B2AB60A73
:1004CE0036080A3A031D372A250803390319A12ACB
:1004DE002E0884002D309D2AD6260A128A11CC268B
:1004EE000A128A150A200A128A11F0000A128A15B7
:1004FE000A200A128A11F1000A128A150A200A121B
:10050E008A11F2000A128A150A200A128A1133275A
:10051E000A128A1590220A128A1149270A128A157E
:10052E0052220A128A115D270A128A118313800041
:10053E008316AE0AB603360F732A3008803AFF00D0
:10054E0080307F02031DAD2A01302F02031CB82A12
:10055E009B272E0894270A128A11AF07031CB0039B
:10056E00A42A9B273208803AFF0080307F02031DA9
:10057E00C22A09303102031CC72A08309B27C92A18
:10058E009B273108B6008D270A128A11B1028312F9
:10059E0057088316031CB203B20236080319DD2A6C
:1005AE002E0884002E3083138000AE0A3608BB233B
:1005BE000A128A113C08B0003D08B1003E08B20094
:1005CE008316330828270A128A11CF250A128A1198
:1005DE002D08A0002E08A1002F08A2009E270A12A7
:1005EE008A11DE260A128A11652BD6260A128A1164
:1005FE00CC260A128A150A200A128A11F0000A1253
:10060E008A150A200A128A11F1000A128A150A2086
:10061E000A128A11F2000A128A150A200A128A1187
:10062E0033270A128A1590220A128A1149270A12B2
:10063E008A1552220A128A115D270A128A11831311
:10064E0080008316AE0ACC260A128A150A200A12D8
:10065E008A11A0000A128A150A200A128A11A10014
:10066E000A128A150A200A128A11A2000A128A1583
:10067E000A200A128A11A30083162D088312A700DE
:10068E0083162C088312A60083162B088312A5004E
:10069E0083162A088312A4000A128A1552220A12FD
:1006AE008A1123088316AD00831222088316AC002C
:1006BE00831221088316AB00831220088316AA002A
:1006CE00B603360FFC2A3208310403190B282E0804
:1006DE0094270A128A11B107031CB2036A2B8316E0
:1006EE0032083104031D832B2D082C042B042A04FD
:1006FE000319B10A0319B20A36088312D600D701BC
:10070E00D61BD7035708803AD80083163208803A92
:10071E0083125802031D972B83163108831256023B
:10072E00031CAA2B9B2736088D270A128A11320822
:10073E00803A8312D8005708803A5802031DAA2B1C
:10074E005608831631029B272508033903190B28F7
:10075E002E0884002D3083138000AE0A0B282E083D
:10076E0084008313800108008312C600C61F872CE5
:10077E00C609C60A4608803A123E031C2B2C0A30C4
:10078E003E270A128A1192250A128A117108F9005F
:10079E007008F8004D250A128A116D271C3E840040
:1007AE000A128A150A200A128A11AD000A128A1537
:1007BE000A200A128A11AE000A128A150A200A129B
:1007CE008A117D270A128A11F81BF9034D250A1288
:1007DE008A11F426373E84000A128A150A200A125C
:1007EE008A11B0000A128A150A200A128A11B10063
:1007FE000A128A150A200A128A11B200CF250A128D
:10080E008A1110270A128A11F21BF30392250A127B
:10081E008A11EC26013E84000A128A150A200A1259
:10082E008A11AD000A128A150A200A128A11AE0028
:10083E000A128A150A200A128A1175270A128A11BB
:10084E00CF250A128A11FC2E4608803A753E031CEB
:10085E00702C0A30F000F1014608F200F301F21B91
:10086E00F30392250A128A11EC26013E84000A1225
:10087E008A150A200A128A11AD000A128A150A2058
:10088E000A128A11AE000A128A150A200A128A1159
:10089E0085270A128A11F81BF9034D250A128A11AF
:1008AE00F4261C3E84000A128A150A200A128A11A6
:1008BE00B0000A128A150A200A128A11B1000A1211
:1008CE008A150A200A128A11B200CF250A128A113D
:1008DE00FC2E0330F90046083E26013E84000A1223
:1008EE008A150A200A128A11BC000A128A150A20D9
:1008FE000A128A11BD000A128A150A20BE000800CB
:10090E004608803A123E031CF12C0A303E270A128A
:10091E008A1192250A128A117108F9007008F800DE
:10092E004D250A128A116D27433E84000A128A153C
:10093E000A200A128A11AD000A128A150A200A121A
:10094E008A11AE000A128A150A200A128A117D2710
:10095E000A128A11F81BF9034D250A128A11F42680
:10096E005E3E84000A128A150A200A128A11B0000D
:10097E000A128A150A200A128A11B1000A128A1561
:10098E000A200A128A11B200CF250A128A111027E4
:10099E000A128A11F21BF30392250A128A11EC260F
:1009AE00283E84000A128A150A200A128A11AD0006
:1009BE000A128A150A200A128A11AE000A128A1524
:1009CE000A200A128A1175270A128A11CF250A12D5
:1009DE008A11FC2E4608803A753E031C362D0A30CD
:1009EE00F000F1014608F200F301F21BF303922529
:1009FE000A128A11EC26283E84000A128A150A2051
:100A0E000A128A11AD000A128A150A200A128A11D8
:100A1E00AE000A128A150A200A128A1185270A12B6
:100A2E008A11F81BF9034D250A128A11F426433E4A
:100A3E0084000A128A150A200A128A11B0000A12BC
:100A4E008A150A200A128A11B1000A128A150A2082
:100A5E000A128A11B200CF250A128A11FC2E033017
:100A6E00F90046083E26283E84000A128A150A20FE
:100A7E000A128A11BC000A128A150A200A128A1159
:100A8E00BD000A128A150A20BE000800FB01F71FDE
:100A9E00572DF609F709F60A0319F70AFB01FB0AA7
:100AAE00F91F602DF809F909F80A0319F90A01303E
:100ABE00FB06FC01FD01770876040319852DFA016A
:100ACE00FA0AF71B6E2D0310F60DF70D672D0310A6
:100ADE00FC0DFD0D77087902031D772D760878023F
:100AEE00031C812D7608F8027708031CF903F9021E
:100AFE007C140310F70CF60CFA0B6E2D7B08031901
:100B0E008D2DFC09FD09FC0A0319FD0A7D08F7006D
:100B1E007C08F6000800F501F31F9C2DF209F3097D
:100B2E00F20A0319F30AF501F50AF11FA32DF009D4
:100B3E00F109F00A0319F10A710870040319C22DA4
:100B4E00F401F40AF11BAF2D0310F00DF10DA82DD9
:100B5E0071087302031DB52D70087202031CBE2DA1
:100B6E007008F2027108031CF303F3020310F10C78
:100B7E00F00CF40BAF2D75080319CA2DF209F30909
:100B8E00F20A0319F30A7308F1007208F000080064
:100B9E002D08B3002E08B4002F08B5000310340D35
:100BAE00350DB600B608031DE02DAD01AE01AF0147
:100BBE0008003008B3003108B4003208B500031045
:100BCE00340D350DBB00BB08031DF12DAD01AE017B
:100BDE00AF0108003B087B3EB6072F08BB0032086A
:100BEE00BB068030BB050730AE17B117B201B70197
:100BFE00B801B901BA002D1C0C2E300853270A1269
:100C0E008A110318320A031DB9070310AF0CAE0C7C
:100C1E00AD0C0310B00DB10DB20DBA0B022E093092
:100C2E00BA002D1C222E300853270A128A110318DF
:100C3E00320A031DB9070310AF0CAE0CAD0C031036
:100C4E00B90CB80CB70CBA0B182E3708F0003808D0
:100C5E00F1003908F2003608F3003B08F4004C2688
:100C6E007008AD007108AE007208AF000800FB00FE
:100C7E00FA0179087B18FA070310F90D0310FB0C23
:100C8E00FB08031D402E7A08080073080319542E22
:100C9E00720871047004031D5D2EF001F101F20162
:100CAE000800F30A0310F20CF10CF00CFE30720582
:100CBE0003196C2E582EF30AF00A0319F10A0319C0
:100CCE00F20A0310F20CF10CF00CFF30720503194E
:100CDE00762E622EF3030310F00DF10DF20DF11FBF
:100CEE00712E731CF1130310F30C7308F700F60149
:100CFE00F5017508F0047608F1047708F20474081B
:100D0E00031DF2170800F21F992E7008003CF00028
:100D1E007108031C710F003CF1007208031C720F66
:100D2E00803CF200F51FA82E7308003CF3007408F7
:100D3E00031C740F003CF4007508031C750F803CF7
:100D4E00F5008030F206F50675087202031D0800E4
:100D5E0074087102031D0800730870020800F10088
:100D6E003A30F00171020318C22E30307102031CAA
:100D7E00C22EF001F00A700C0800720871047004A3
:100D8E00031908008030F206080036088312D600D8
:100D9E000310D60D0310560D4F3E840008000A3086
:100DAE008312A000A101A201A3018316080023084B
:100DBE008316AD00831222088316AC00831221081D
:100DCE008316AB008312200808007008BF0071085C
:100DDE00C0003F083F073F0708007608C1007708AC
:100DEE00C20041084107410708002D08BC002E082B
:100DFE00BD002F08BE0008003C088316A700831212
:100E0E003D088316A80083123E088316A9003308F6
:100E1E0008002D08C3002E08C4002F08C5000A3094
:100E2E00F000F1014608F200F30108008312A00061
:100E3E00831634088312A100831635088312A2008C
:100E4E0008008312AD00831634088312AE00831699
:100E5E0035088312AF000800F30083162D08F70043
:100E6E002C08F6002B08F5002A08F4000800F600FE
:100E7E00F7014608F200F301F21BF3036430F000B1
:100E8E00F101080073088312A7007208A60071080A
:100E9E00A5007008A4000800B70731080311031855
:100EAE00310A031DB8073208031108002008303E2E
:100EBE00D70083162E0884008312570808002708CF
:100ECE00F0002808F1002908F20008007608BF009B
:100EDE007708C0003F083F073F070800AF004308F0
:100EEE00B0004408B1004508B2000800AF006430FD
:100EFE00F600F7014608F800F9010800AF000A30C5
:100F0E00F600F7014608F800F90108008312D60032
:100F1E00D701D61BD7038316080084003030831305
:100F2E008000FF30AE0A0800831603130800F9276D
:100F3E000A128A110310250D260DAC00AC08031DF4
:100F4E00AD2FA001A101A201A3010800F9270A12E9
:100F5E008A1117300310A60CA50CA40CFF3E031D1E
:100F6E00B12F2408A700A117A2012008A80021086C
:100F7E00A9002208AA008E30AB01AC02AC1FD42F00
:100F8E002C08803A8F3E031CA82F0310AB0CAA0C22
:100F9E00A90CA80CAC0FCC2FE22F18302C02031882
:100FAE00A82FAC080319E22F0310A80DA90DAA0D46
:100FBE00AB0DAC03D82F27080319F02FA809A909E8
:100FCE00AA09AB09A80A0319A90A0319AA0A03193F
:100FDE00AB0A2B08A3002A08A2002908A1002808A2
:100FEE00A00008002008A4002108A5002208A600E1
:100FFE000800FF1B0A2883137F1883170008840A32
:10100E000319FF0A080008308A000408840A8207C0
:10101E000034003480343F34CD34CC343D34D734B6
:10102E0023343C34123483343A34B734D134383424
:10103E00C63427343734383486343534C034D63455
:10104E003334CC342B343234703489343034E73486
:10105E00DB342E34E5343C341E344234A2340D34A9
:10106E00003480343F340034203441340034C834EA
:10107E00423400347A34443440341C3446345034D0
:10108E00C3344734243474344934973418344B34CD
:10109E00BC34BE344C346B346E344E34033415349D
:1010AE0050347934AD346034F3344934713401340E
:1010BE000034003400340A34003400340034643414
:1010CE00003400340034E834033400340034103477
:1010DE00273400340034A0348634013400344034D4
:1010EE0042340F3400348034963498340034003453
:1010FE00E134F53405340034CA349A343B342534A3
:10110E002E34333466340034563431343A340034A9
:10111E00563432343A340034563433343A3400349C
:1013F200DB01DC01DD01DE01DF01E001E101E201EF
:10140200E301E40183010A128A15862D7808F000AF
:101412007908F1008E30F201F300F4010A128A1108
:101422004C267008F8007108F9007208FA000800EA
:10143200F401F501701C232A7208F4070318F50A57
:101442007308F5070310F20DF30D0310F10CF00C05
:1014520071087004031D1B2A7508F1007408F0005E
:1014620008008E30FC00FF307B0503193F2A031071
:10147200FB0CFA0CF90CF80CFC0A342A7808F00080
:101482007908F1007A08F2007C08F300F4010A12EC
:101492008A114C267008F8007108F9007208FA00E7
:1014A200080023082204210420040319872AFD01CD
:1014B200FD0AA31B622A0310A00DA10DA20DA30D0C
:1014C200592A23082702031D702A22082602031D17
:1014D200702A21082502031D702A20082402031CF9
:1014E200812A2008A4022108031C210FA502220838
:1014F200031C220FA6022308031C230FA7020310BA
:10150200A30CA20CA10CA00CFD0B622A2708A300BD
:101512002608A2002508A1002408A0000800F8015E
:10152200F901FA01FB0173087204710470040319D2
:10153200CF2AFC01FC0AF31BA42A0310F00DF10DC3
:10154200F20DF30D9B2A0310F80DF90DFA0DFB0DA8
:1015520073087702031DB72A72087602031DB72AA1
:1015620071087502031DB72A70087402031CC92A88
:101572007008F4027108031C710FF5027208031C53
:10158200720FF6027308031C730FF702781403102C
:10159200F30CF20CF10CF00CFC0BA42A7B08F30008
:1015A2007A08F2007908F1007808F0000800700863
:1015B200F6007108F7007208F8000310770D780D35
:1015C2008312A500A508031DEB2AF001F101F20127
:1015D200F30108007308F6007408F7007508F800B4
:1015E2000310770D780DA400A4080319E62A7F30B2
:1015F200F117F201F417F501A001A101A201A30163
:10160200A50298302407F600A5021830A4000310A2
:10161200A00DA10DA20DA30D75087202031D172BBB
:1016220074087102031D172B73087002031C252B0B
:101632007308F0027408031C740FF1027508031C8E
:10164200750AF20220140310F00DF10DF20DA40B35
:10165200082BA51F392B2508803A973E031CE62A42
:101662000310A30CA20CA10CA00CA50F312B472B2D
:10167200183025020318E62AA5080319472B031080
:10168200A00DA10DA20DA30DA5033D2B2308F30070
:101692002208F2002108F1002008F0000800F500FD
:1016A200831208117508803EBE2B08157608FF00CC
:1016B200750884000A128A1500200A128A15003859
:1016C200031908007608FF00750884000A128A15BB
:1016D20000200A128A15BE230A128A15F50A031976
:1016E200F60A572B0317880103138501870183121A
:1016F2000F30081188100812F000F101AD230A1210
:101702008A1503308312031387000A308814881065
:10171200F000F101AD230A128A15E4230A128A1598
:10172200AD230A128A15E4230A128A15AD230A127E
:101732008A15023083120313870028308814881018
:10174200BE230A128A150F30BE230A128A15DB2322
:101752000A128A150630BE2BF201F30171087302D8
:10176200031DB52B7008720203180800D0230A1259
:101772008A15F20A0319F30AAF2BF400F001F00AFA
:10178200F101AD23740E0F398312031387008814FD
:10179200881074080F3987008814881008000130F7
:1017A2008316031381000D30831281000B1DD72B8A
:1017B2000B11080001300811BE230A128A150230EB
:1017C200F000F101AD2B831203130A308814881044
:1017D200F000F10108007030A1240A128A150310EA
:1017E200780D790D83120313A500A508031DFE2BA6
:1017F200F001F101F201F30108007330A1240A1291
:101802008A150310780D790DA400A4080319F92B89
:10181200703084008030840A840A80047030840A24
:1018220084007330840A840A840A80018400803030
:10183200840A840A80047330840A84007F30840A14
:10184200840A840A8001A001A101A201A301A502C8
:10185200A0302407F600A5022030A4007330031044
:10186200A00DA10DA20DA30DA1240A128A1570309C
:1018720084000008FA00840A0008FB00840A0008B9
:10188200FC00840A0008FD0079087D02031D532C28
:1018920078087C02031D532C77087B02031D532C0E
:1018A20076087A02031C6F2C7330A1240A128A155F
:1018B2007030840076088002840A7708031C770F50
:1018C2008002840A7808031C780F8002840A79084F
:1018D200031C790A800203308402201470308400D1
:1018E2000310800D840A800D840A800D840A800D05
:1018F200A40B2F2CA51F8A2C2508803A9F3E031C7F
:10190200F92B0310A30CA20CA10CA00CA50F822C86
:10191200982C203025020318F92BA5080319982CBE
:101922000310A00DA10DA20DA30DA5038E2C23085B
:10193200F3002208F2002108F1002008F00008005C
:1019420084000008F600840A0008F700840A0008F0
:10195200F800840A0008F90008008030CA064B0823
:10196200BC004C08BD004D08BE004808BF00490835
:10197200C0004A08C100C4243C08C8003D08C90090
:101982003E08CA0008003C08C2003D08C3003E08E9
:10199200C4000310430D440DC7003F08C2004008B5
:1019A200C3004108C4000310430D440DC60047089C
:1019B2000319E72C4608470246080318EF2CC20019
:1019C2004708C20219304202031CEE2C3F08BC0039
:1019D2004008BD004108BE0008004608031908007F
:1019E200470846020318FD2C4708C2004608C202F7
:1019F20019304202031808000630C500BE1BC51785
:101A0200C11B4517BD17BE01C017C10146084702D9
:101A12000318242D0310BF0DC00DC10DC6034608C7
:101A2200470603191F2DC5034508073903191F2D42
:101A32000B2D0310BE0CBD0CBC0CC70A4708460692
:101A42000319402D1A2D470846020318402D031092
:101A5200BC0DBD0DBE0DC7034608470603193C2D3C
:101A6200C5034508073903193C2D282D0310C10C65
:101A7200C00CBF0CC60A47084606031D372DC51FFA
:101A82004B2DFF30BC06BD06BE06BC0A0319BD0ABB
:101A92000319BE0A451F562DFF30BF06C006C106F8
:101AA200BF0A0319C00A0319C10AC5013C08BF07CE
:101AB2003D08031103183D0A031DC0073E08031128
:101AC20003183E0A031DC107C11F722DFF30BF0656
:101AD200C006C106BF0A0319C00A0319C10AC5011B
:101AE200C50A3F08F0004008F1004108F20047082B
:101AF200F3004508F4000A128A114C267008BC0053
:101B02007108BD007208BE000800E030831603179A
:101B120088008901803003139F008501FF30860011
:101B220087018801073089000A128A1573230A1275
:101B32008A1500300A128A1550230A128A157C303F
:101B4200F5008030F6000A128A1556230A128A1509
:101B520008300A128A1550230A128A158030F500BD
:101B62008030F6000A128A1556230A128A1544306A
:101B72000A128A1550230A128A158430F500803021
:101B8200F6000A128A1556230A128A15D5308312D4
:101B920003139F009F149F18CC2D1E08DF00DE0147
:101BA20083161E088312DE042830AD00A030AE007A
:101BB2003B30AF005F08F9005E08F8000A128A1590
:101BC20007220A128A157808B0007908B1007A084B
:101BD200B2000A128A11CF250A128A152D08DB00DB
:101BE2002E08DC002F08DD007730D2005B08D3001E
:101BF2005C08D4005D08D50060300A128A11072003
:101C02000A128A1503300A128A1550230A128A15FB
:101C12006030F5000030F6000A128A1556230A12C7
:101C22008A15D9309F009F149F18152E1E08DF00B9
:101C3200DE0183161E088312DE042830AD00A030B8
:101C4200AE003B30AF005F08F9005E08F8000A12F0
:101C52008A1507220A128A157808B0007908B1009D
:101C62007A08B2000A128A11CF250A128A152D08A3
:101C7200DB002E08DC002F08DD007730D2005B0885
:101C8200D3005C08D4005D08D50060300A128A11C6
:101C920007200A128A150B300A128A1550230A12DB
:101CA2008A156030F5000030F6000A128A155623B4
:101CB2000A128A15DD309F009F149F185E2E1E089F
:101CC200DF00DE0183161E088312DE042830AD0019
:101CD200A030AE003B30AF005F08F9005E08F800AC
:101CE2000A128A1507220A128A157808B0007908A2
:101CF200B1007A08B2000A128A11CF250A128A1597
:101D02002D08DB002E08DC002F08DD007730D20022
:101D12005B08D3005C08D4005D08D50060300A126D
:101D22008A1107200A128A1547300A128A1550238F
:101D32000A128A156030F5000030F6000A128A1580
:101D420056230A128A15F430F0000130F1000A120B
:101D52008A15AD230A128A15C72D8312D1006E305F
:101D62005102031C392F0330F9000A30F5006430A8
:101D7200F0005108CE270A128A15B3270A128A11D7
:101D82003E260A128A151C3E84000A128A150A206F
:101D92000A128A15AD000A128A150A200A128A1539
:101DA200AE000A128A150A200A128A15AF00033001
:101DB200F9006430F5005108B3270A128A113E2651
:101DC2000A128A15373E84000A128A150A200A125C
:101DD2008A15B0000A128A150A200A128A15B10061
:101DE2000A128A150A200A128A15B2000A128A11E8
:101DF200CF250A128A15F9270A128A150330F9002B
:101E02000A30F0005108CE270A128A113E260A1221
:101E12008A15013E84000A128A150A200A128A15BE
:101E2200AD000A128A150A200A128A15AE000A1299
:101E32008A150A200A128A15F1270A128A11CF2559
:101E42000A128A152D08CB002E08CC002F08CD00CF
:101E52003F30AD01AE01AF004B08B0004C08B100FD
:101E62004D08B2000A128A11CF250A128A15EA2FEA
:101E72000B305102031C8D2F0330F9000A30F000A1
:101E82005108CE270A128A113E260A128A15013EED
:101E920084000A128A150A200A128A15AD000A1253
:101EA2008A150A200A128A15AE000A128A150A2019
:101EB2000A128A15AF000330F9000A30F500510802
:101EC200B3270A128A113E260A128A151C3E840082
:101ED2000A128A150A200A128A15B0000A128A15F5
:101EE2000A200A128A15B1000A128A150A200A1259
:101EF2008A15B2000A128A11CF250A128A15F92709
:101F02000A128A153F30AD01AE01F1270A128A1179
:101F1200CF250A128A15EA2F3F30AD01AE01AF007C
:101F22000330F90051080A128A113E260A128A1554
:101F3200013E84000A128A150A200A128A15B0008C
:101F42000A128A150A200A128A15B1000A128A1583
:101F52000A200A128A15B2000A128A11CF250A1221
:101F62008A15EA2FF600F80175080319CC2FF7013C
:101F7200F70AF51BBF2F0310F50DB92F0310F80D4B
:101F820075087602031CC92F7508F602781403102F
:101F9200F50CF70BBF2F78080800F2000830F300A9
:101FA200F4017208F10007300310F10CFF3E031038
:101FB200031DD62F740D7104F4000310F20D700886
:101FC2007402031CE62F7008F402F30BD22F74087C
:101FD20008002D08C8002E08C9002F08CA000800F2
:101FE200AF004E08B0004F08B1005008B200080020
:0E1FF2002D08CE002E08CF002F08D0000800CA
:04400E00D4E0FFFFFC
:00000001FF
