:100000000A128A11042DFF1B0D2883137F188317F2
:100010000008840A0319FF0A080000308A00040857
:10002000840A82070034013400340A340034643412
:100030000034E834033410342734463475346534DE
:100040007234613420346434653420347234613461
:100050006E3467346F340034443469347334743428
:1000600061346E346334693461343A34203400349A
:100070004E346F34203468346134793420346E3433
:1000800061346434613400342034253433347534BD
:08009000203463346D340034A8
:100A0800B001B101B201B301B401B501B601B7013A
:100A1800B801B901BA01BB01BC0183010A128A11EC
:100A2800662DF201F3018E018F011014222D03307F
:100A38007302E830031972020318242D861C1B2D3B
:100A48000F08F300F2010E08F20403307302E830D5
:100A580003197202F001031C332DF1010800F00A9A
:100A6800F1010800F40084008001840A80018E01ED
:100A78008F01452D5C250A128A1103197202031889
:100A8800472D86183E2D740884000E088000840ABD
:100A98000F08800010105C250A128A1103197202CF
:100AA800F001031C5A2DF00AF1010800F1010800B9
:100AB800740884000008F200840A0008F3005A3021
:100AC8007302A03483160317880189010313850173
:100AD800023086001030831290008E018F010A12B6
:100AE8008A1115260A128A110A128A117D260A12FB
:100AF8008A1103300A128A11F2250A128A111A3051
:100B0800F5008030F6000A128A11F8250A128A11B7
:100B180002300610F000F1010A128A114E260A125C
:100B28008A118312031306140A128A1115250A1250
:100B38008A11710870040319D92D7C300A128A11A0
:100B480036250A128A11710870040319B32D43302F
:100B58000A128A11F2250A128A110B30E02D1D3073
:100B6800F000F1017D08F3007C08F2000A128A11F6
:100B7800AC270A128A117108FD007008FC00433086
:100B88000A128A11F2250A128A113230A0007D0851
:100B9800A2007C08A10030300A128A1192260A129B
:100BA8008A113030F5000030E22D43300A128A11E4
:100BB800F2250A128A112630F5008030F6000A1252
:100BC8008A11F8250A128A11F430F0000130F10078
:100BD8000A128A114E260A128A11782DF5008F26DC
:100BE80008117508803E5F2E08157608FF00750805
:100BF80084000A128A1103200A128A110038031984
:100C080008007608FF00750884000A128A1103207C
:100C18000A128A115F260A128A11F50A0319F60ABE
:100C2800F92D8316031788010313850187018312A1
:100C38000F30081188100812F000F1014E260A1230
:100C48008A1103308F2687000A3088148810F00034
:100C5800F1014E260A128A1187260A128A114E2697
:100C68000A128A1187260A128A114E260A128A1136
:100C780002308F2687002830881488105F260A12D1
:100C88008A110F305F260A128A117D260A128A11EC
:100C980006305F2EF201F30171087302031D562E10
:100CA800700872020318080072260A128A11F20AE2
:100CB8000319F30A502EF400F001F00AF1014E2650
:100CC8000A128A11740E0F398F268700881488102B
:100CD80074080F39870088148810080001308316BB
:100CE800031381000D30831281000B1D792E0B1127
:100CF80008008F26013008115F260A128A11023077
:100D0800F000F1014E2E831203130A308814881064
:100D1800F000F1010800831203130800AC00213031
:100D2800A6002008A00A84000A128A110D200A12BF
:100D38008A11AF00AF080319802F2F08253A03192D
:100D4800AA2E2C08FA270A128A11952EAD01AE0197
:100D5800200884000A128A110D200A128A11852798
:100D68000A128A11031CE52EAD01AE012E08F1000E
:100D78002D08F0000A30F200F301932720088400C0
:100D88000A128A110D200A128A117007A300003076
:100D9800031801307107A4002308D03EAD002408D1
:100DA8000318013EFF3EAE00A00A200884000A1284
:100DB8008A110D200A128A1185270A128A1103182E
:100DC800BA2E2008A00A84000A128A110D200A12DD
:100DD8008A11AF00003A0319802F753A0319F52ECE
:100DE800952E2608840083130008A700840A0008AB
:100DF800A800A60AA60AAF01AF0A03102F0D013EEC
:100E080084000A128A110D200A128A11A3000A12FC
:100E18008A110D200A128A11A4002802031D162F18
:100E280023082702031C1D2FAF0A2F08053A031DAC
:100E3800012F2F08A300A401A31BA4032408803AB0
:100E4800A5002E08803A2502031D2C2F2D08230209
:100E580003183B2F831203132F08A300A401A31B1D
:100E6800A403AD022408031CAE03AE023F2F831275
:100E78000313AD01AE012E082D040319512F2C08C0
:100E88008400203083138000FF30AC0AAD07031CB8
:100E9800AE032E082D04031D432F2F08AB007C2F13
:100EA8000A30F700F80103102B0D013E84000A12E6
:100EB8008A110D200A128A11F0000A128A110D20D7
:100EC8000A128A11F1002808F3002708F200AC275B
:100ED8000A128A117108FA007008F900D6270A1256
:100EE8008A117708303EAF002C08FA270A128A11B7
:100EF800AB032B0F542F952E2C08840083138001ED
:100F08000800F1003A30F00171020318912F3030D7
:100F18007102031C912FF001F00A700C0800F40113
:100F2800F501701C9D2F7208F4070318F50A730861
:100F3800F5070310F20DF30D0310F10CF00C710816
:100F48007004031D952F7508F1007408F00008005F
:100F5800F401F501710870040319D12FF601F60A9E
:100F6800F11BBA2F0310F00DF10DB32F0310F40D80
:100F7800F50D71087302031DC32F70087202031C5C
:100F8800CD2F7008F2027108031CF303F3027414E6
:100F98000310F10CF00CF60BBA2F7508F100740869
:100FA800F0000800780877040319F52FFB01FB0A05
:100FB800F81BE22F0310F70DF80DDB2F78087A02E3
:100FC800031DE82F77087902031CF12F7708F9022F
:100FD8007808031CFA03FA020310F80CF70CFB0B51
:100FE800E22F7A08F8007908F700080084002F0833
:080FF80083138000AC0A08001D
:04400E00D4E0FFFFFC
:00000001FF
