:020000040000FA
:100000008316031788018901831603138501FF30C6
:100010008600870188018901D33081008312031390
:10002000A401A301A201A1017830A000210845206C
:1000300085000130870050202208452085000230CD
:100040008700502023084520850004308700502079
:10005000240845208500083087005020A00B162872
:10006000A10A0A302102031D1428A20A0630220226
:10007000031D1328A30A0A302302031D1228A40A11
:1000800006302402031D1128102882073F3406344D
:100090005B344F3466346D347D3407347F346734D9
:0C00A0007F3081000B1D52280B1108005E
:02400E00D420BC
:02401000FF3F70
:00000001FF
