:020000040000FA
:10000000831603178801890183160313FF308600C6
:100010008501870188018901D33081008312031390
:10002000850181010030B0000030B1000030B20025
:100030000030B3000030B4000030B5000030B6002E
:100040000030B7000130C1000030B9000030C200FC
:100050000430C0003C30A900300885000130870022
:100060007E2031088500023087007E20320885001E
:10007000043087007E2033088500083087007E200A
:1000800034088500103087007E204108850010303C
:1000900087007E2035088500203087007E203608C6
:1000A0008500403087007E2037088500803087003B
:1000B0007E20A90B2C2842087920C100C20A3108F1
:1000C000B0003208B1003308B2003408B30035087C
:1000D000B4003608B5003708B60039087420B700F8
:1000E000B90AC00B2A2824288207013401340134BC
:1000F0000134820701340234043408347F30810033
:080100000B1D80280B11080003
:02400E00D420BC
:02401000FF3F70
:00000001FF
