:020000040000FA
:10000000831603178801890183160313FF308600C6
:100010008501870188018901D4308100831203138F
:100020008501870181011E30A2004030850020300B
:100030008700EA203030850020308700EA20A20BBC
:1000400015281E30A2004030850024308700EA20A9
:100050003030850024308700EA20A20B23281E3090
:10006000A2004030850024308700EA20303085002F
:1000700024308700EA200830850000308700EA201D
:100080000430850000308700EA2002308500C0304F
:100090008700EA20A20B31281E30A20040308500E4
:1000A00024308700EA203030850024308700EA20A1
:1000B0000830850000308700EA20043085000030D9
:1000C0008700EA2002308500F0308700EA20A20B8A
:1000D0004E281E30A2004030850024308700EA20E0
:1000E0003030850024308700EA2008308500003059
:1000F0008700EA200430850000308700EA200230C3
:100100008500FC308700EA20A20B6B281E30A2007D
:100110004030850024308700EA20303085002430CC
:100120008700EA200830850000308700EA2004308C
:10013000850000308700EA2002308500FF3087000C
:10014000EA20A20B88281E30A2004030850024300F
:100150008700EA203030850024308700EA2008300C
:10016000850000308700EA200430850000308700D9
:10017000EA200230850081308700EA2001308500C6
:100180007E308700EA20A20BA5281E30A200403056
:10019000850024308700EA20303085002430870035
:1001A000EA200830850000308700EA20043085000E
:1001B00000308700EA20023085007E308700EA2088
:1001C0000130850081308700EA20A20BC7281E304D
:1001D000A20015280130A3000730A4006430A50058
:1001E00000000000A50BF028A40BEE28A30BEC28C0
:0201F000080005
:0401F20000340034A1
:02400E00D420BC
:02401000FF3F70
:00000001FF
