:060000000A128A11C02F54
:100F800083010A128A11E02FF201F3017108730242
:100F9000031DCC2F7008720203180800D5270A120F
:100FA0008A11F20A0319F30AC62FD13083160313EC
:100FB00081007A30831281000B1DDC2F0B11080099
:100FC000831603178801890103138501FF3086000A
:100FD00087018801033089006430F400F4080319A4
:100FE000EC2F7408831203138500B630F000013033
:100FF000F1000A128A11C4270A128A11F403EE2F93
:04400E00D4E0FFFFFC
:00000001FF
