:060000000A128A11942B84
:10070C0083161930871707139900903083129800BD
:10071C002630831698000317870108000230B301B6
:10072C00B401B501B601B701B801B901BA01BB01F9
:10073C00BC00BD01BE0083010A128A11272CFD00EA
:10074C007D08840083130008203A031DAF2BFD0A9B
:10075C00A62B7D0884000008093A0319AD2BFB0178
:10076C00FC01FA017D08840000082D3A031DC02B02
:10077C00FA0AEA2B7D08840000082B3A0319EA2BAD
:10078C007D088400000800240A128A11031CEC2B3B
:10079C007D0884007C08F1007B08F0000A30F20030
:1007AC00F3010E240A128A1100087007F8000030B9
:1007BC00031801307107F9007808D03EFB00790866
:1007CC000318013EFF3EFC00FD0AC62B7A080319F4
:1007DC00FB2B7B09F8007C09F900F80A0319F90ACC
:1007EC007808F6007908F70008007C08F7007B0809
:1007FC00F6000800F1003A30F001710203180C2CDD
:10080C0030307102031C0C2CF001F00A700C080043
:10081C00F401F501701C182C7208F4070318F50A82
:10082C007308F5070310F20DF30D0310F10CF00C27
:10083C0071087004031D102C7508F1007408F00089
:10084C00080060308316031788008901FF300313FA
:10085C008600850188018701073089008312920088
:10086C00FF30831692008030831295000C30970075
:10087C000A128A1155270A128A110A128A11862322
:10088C000A128A1103139F13822D7130A000893034
:10089C00A1003408A3003308A2000A128A116426AE
:1008AC000A128A110A128A1101260A128A110A12D4
:1008BC008A11AF270A128A11822D7130A00089305B
:1008CC00A1003408A3003308A2000A128A1164267E
:1008DC000A128A110608B300D930B401A00088307E
:1008EC00A1003408A3003308A2000A128A1164265E
:1008FC000A128A115D2C7130A0008930A1003408D5
:10090C00A3003308A2000A128A1164260A128A1163
:10091C006E30A0008930A1000A128A1164260A12D6
:10092C008A117A30A0008830A1000A128A1164263C
:10093C000A128A11AD01AE01831203132D08353E44
:10094C0084000A128A11AF270A128A1183138000BD
:10095C00AD0A0319AE0A2E08803AFF0080307F02E0
:10096C00031DBA2C03302D02031CA22C35300A12A5
:10097C008A11A5230A128A11770883120313B40073
:10098C007608B300EF30A0008830A1003408A30033
:10099C003308A2000A128A1164260A128A118501F0
:1009AC00330885005D2C7130A0008930A10034081B
:1009BC00A3003308A2000A128A1164260A128A11B3
:1009CC001C30A0008830A1000A128A1164260A1279
:1009DC008A11AF01B001831203132F08353E840036
:1009EC000A128A11AF270A128A1183138000AF0AE8
:1009FC000319B00A3008803AFF0080307F02031DD3
:100A0C00092D04302F02031CF12C35300A128A11E7
:100A1C00A5230A128A11770883120313B4007608EF
:100A2C00B300EF30A0008830A1003408A3003308D5
:100A3C00A2000A128A1164260A128A113408BC0018
:100A4C003308BB004B30A0008830A1000A128A1179
:100A5C0064260A128A11B101B20183120313310800
:100A6C00353E84000A128A11AF270A128A118313A9
:100A7C008000B10A0319B20A3208803AFF008030B4
:100A8C007F02031D4B2D04303102031C332D3530F6
:100A9C000A128A11A5230A128A11770883120313EA
:100AAC00B4007608B300EF30A0008830A100340801
:100ABC00A3003308A2000A128A1164260A128A11B2
:100ACC003408BE003308BD000A128A11E0250A1250
:100ADC008A115D2C3230A0008930A1000A128A11D3
:100AEC0064260A128A11E830F0000330F1000A1271
:100AFC008A118B270A128A11743083120313A000F7
:100B0C008930A1000A128A1164260A128A116B30EC
:100B1C00A0008930A1000A128A1164260A128A11D7
:100B2C005930A0008930A1000A128A1164260A12D9
:100B3C008A111D30A0008930A1000A128A11642686
:100B4C000A128A11F230A0008830A1000A128A1110
:100B5C0064260A128A114630A0008930A1000A12BC
:100B6C008A1164260A128A110830A0008930A1006B
:100B7C000A128A1164260A128A110A128A11AF27E4
:100B8C000A128A11B300B4013408003A0319CF2DAC
:100B9C00702D3308313A03194B2C033A0319632C8B
:100BAC00013A0319812C073A0319D92C702D0A121A
:100BBC008A1100283C08F5003B08C9270A128A1143
:100BCC009500E3270A128A119700F001F00AF1014F
:100BDC008B270A128A11FD273E08F5003D08C9270C
:100BEC000A128A119B00E3270A128A119D00AF2773
:100BFC000A128A11272CD5309F009F149F18042E9F
:100C0C001E08BB00BC010310BB0DBC0D0310BB0DBB
:100C1C00BC0D83161E088312AC0006300310AC0CFE
:100C2C00FF3E031D142E2C08BB04F001F00AF10149
:100C3C008B270A128A11D930FD279F009F149F1809
:100C4C00252E1E08BD00BE010310BD0DBE0D0310E8
:100C5C00BD0DBE0D83161E088312AC0006300310AA
:100C6C00AC0CFF3E031D352E2C08BD04F001F00A20
:100C7C00F1018B270A128A116E30FD27A0008930F2
:100C8C00A10064260A128A11A530A0008830A100A8
:100C9C003C08A3003B08A20064260A128A11BF304C
:100CAC00A0008830A1003E08A3003D08A2006426E5
:100CBC000A128A11AF270A128A11272C2230A60099
:100CCC00D7270A128A1500200A128A11AB00AB082A
:100CDC0003190800253A0319782E2B0801270A124C
:100CEC008A11662EA401862E260884008313000820
:100CFC00AB00A60AA60A2B0801270A128A11662E37
:100D0C00D7270A128A1500200A128A11AB00003A62
:100D1C000319002F633A03197A2E073A03199A2EF6
:100D2C000D3A03199A2E812E26088400831300088D
:100D3C00A700840A0008A800A60AA60AA81FAD2EC0
:100D4C000330A404A709A809A70A0319A80AAB0130
:100D5C00AB0A03102B0DF6270A128A1500200A1273
:100D6C008A11FC000A128A1500200A128A11FD0051
:100D7C002802031DC32E7C082702031CCA2EAB0AB3
:100D8C002B08053A031DAF2E240803390319D22E64
:100D9C002D3001270A128A112B08A500FC2E0A30CF
:100DAC00F700F8010310250DF6270A128A1500200A
:100DBC000A128A11F0000A128A1500200A128A11EE
:100DCC00F1002808F3002708F20007270A128A11FD
:100DDC007108FA007008F90031270A128A11770895
:100DEC00303EAB002B0801270A128A11A503250FF0
:100DFC00D52E662E0800F0000C1E022F70089900EC
:100E0C000800F401F5017108700403192C2FF60188
:100E1C00F60AF11B152F0310F00DF10D0E2F031018
:100E2C00F40DF50D71087302031D1E2F700872026C
:100E3C00031C282F7008F2027108031CF303F30241
:100E4C0074140310F10CF00CF60B152F7508F1004F
:100E5C007408F0000800780877040319502FFB0180
:100E6C00FB0AF81B3D2F0310F70DF80D362F7808F1
:100E7C007A02031D432F77087902031C4C2F770845
:100E8C00F9027808031CFA03FA020310F80CF70CA9
:100E9C00FB0B3D2F7A08F8007908F70008000F309B
:100EAC00871107100712F000F1018B270A128A1123
:100EBC000330FD2788000A3007140710F000F101F9
:100ECC008B270A128A11EE270A128A118B270A1213
:100EDC008A11EE270A128A118B270A128A11023004
:100EEC00FD2788002830071407109C270A128A1146
:100EFC000C309C270A128A110F309C270A128A1177
:100F0C00C0270A128A1106309C2FF201F3017308D4
:100F1C007102031D932F72087002031C0800B32783
:100F2C000A128A11F20A0319F30A8D2FF400F00148
:100F3C00F00AF1018B270A128A11740E0F39FD2762
:100F4C0088000714071074080F398800071407105D
:100F5C0008008C1EAF2F1A080800D130831603131B
:100F6C0081000E30831281008E3081000B1DBC2F4E
:100F7C000B110800013087119C270A128A110230CC
:100F8C00F000F1018B2FF4000310F50CF40C03109E
:100F9C00F50CF40C74089E0083169E0183121E0837
:100FAC0008002108FD002008FC00A00A0319A10A72
:100FBC007D08FF007C088400080083161E08F400DE
:100FCC000310F40C0310F40C74080C388312080092
:100FDC00831203130A3007140710F000F101080004
:100FEC00123E840088300318013EFF000800831273
:100FFC0003130800FF1B0A2883137F1883170008AC
:10100C00840A0319FF0A08007F087F398A00040844
:10101C00840A0319FF0A8200013400340A340034B4
:10102C0064340034E8340334103427340A340D3477
:10103C000A3445346C34693467346534203475347F
:10104C006E342034763461346C346F347234203422
:10105C0065346E3474347234653420343034203456
:10106C0079342034313430343234333420347034E5
:10107C00613472346134203465346C34203450342F
:10108C0057344D3431343A3400340A340D340A3484
:10109C0045346C34693467346534203475346E34BB
:1010AC002034763461346C346F34723420346534CB
:1010BC006E347434723465342034303420347934E2
:1010CC00203431343034323434342034703461349C
:1010DC0072346134203465346C34203450345734D9
:1010EC004D3432343A3400340A340D3445346C34D3
:1010FC00693467346534203475346E342034763476
:10110C0061346C346F3472342034613420346D3477
:10111C006F34733474347234613472342034653403
:10112C006E34203465346C3420347034753465344A
:10113C00723474346F34203441343A3400340A3409
:10114C000D34563461346C346F347234203464345E
:10115C0065346C342034633461346E3461346C34F3
:10116C002034433435343A34203425346434203438
:10117C0000340A340D34563461346C346F347234A8
:10118C002034643465346C342034633461346E340C
:10119C0061346C342034433436343A3420342534BE
:1011AC006434203400340D340A340A345634613437
:1011BC006C346F3472342034643465346C342034C1
:1011CC00703475346534723474346F342034423472
:1011DC003A342534643400340D340A3433342E3428
:1011EC002D34203445346E347634693461347234A1
:1011FC002034703475346534723474346F34203464
:10120C00413400340D340A340A3445346C346934B6
:10121C0067346534203475346E34613420346F3463
:10122C007034633469346F346E343A3400340D34B2
:10123C000A3432342E342D342034563461346C3428
:10124C006F347234203470347534653472347434C1
:10125C006F342034423400340D340A340A344F34A1
:10126C007034633469346F346E3420346E346F34BC
:10127C002034763461346C34693464346134003431
:10128C000D340A3434342E342D34203445346E3439
:10129C0076346934613472342034613420345034FF
:1012AC0057344D3400340D340A3431342E342D344B
:1012BC002034563461346C346F3472346534733486
:1012CC00203441344434433400340D340A34003473
:1012DC000A340D3400342534633400340C340034B7
:04400E00F4E0FFFFDC
:00000001FF
