:060000000A128A11FC2E19
:100DF8000130F601F701A0000230A1000430A20082
:100E08000830A3001030A4002030A5004030A60010
:100E18008030A70083010A128A11A52FF201F3017D
:100E280073087102031D1A2F72087002031C080050
:100E380023270A128A11F20A0319F30A142FD13050
:100E48008316031381000E30831281008E308100D7
:100E58000B1D2C2F0B110800F0002A30700203180C
:100E6800382F2108870008004930700203183F2FE7
:100E7800220887000800673070020318462F2308ED
:100E8800870008008630700203184D2F2408870059
:100E98000800A43070020318542F250887000800A2
:100EA800C330700203185B2F260887000800E23061
:100EB80070020318622F2708870008002808870097
:100EC8000800F0002A30700203186E2FA2272108AC
:100ED80085000800493070020318762FA2272208DF
:100EE800850008006730700203187E2FA2272308A8
:100EF80085000800863070020318862FA227240870
:100F080085000800A430700203188E2FA227250838
:100F180085000800C33070020318962FA227260800
:100F280085000800E230700203189E2FA2272708C8
:100F380085000800A22728088500080083120313EB
:100F4800080060308316031788008901FF300313F7
:100F5800860085018801870107308900D530831212
:100F68009F009F149F18B62F83161E08F4000630A2
:100F78000310F40CFF3E031DBC2F83121E08F5005E
:100F88000310F50D0310750D7404F600F001F00A56
:100F9800F1010A128A1112270A128A11D930831212
:100FA80003139F009F149F18D72F83161E08F40061
:100FB80006300310F40CFF3E031DDD2F83121E08BC
:100FC800F5000310F50D0310750D7404F700F0011A
:100FD800F00AF1010A128A1112270A128A117608F8
:100FE8000A128A1165270A128A1177080A128A11C9
:080FF80030270A128A11B22F02
:04400E00F4E0FFFFDC
:00000001FF
