:020000040000FA
:100000008316031760308800890183160313FF30BD
:100010008700850187018801033089009F01FF3037
:100020009200D030810083120313803095009B0032
:100030000C3097009D00921412158C1C1D288316FD
:100040000313870183120313D5309F009F149F1859
:1000500027281E0895003B2097001F104720D93005
:100060009F009F149F1832281E089B003B209D0074
:100070001F1047202428831603131E08831203131E
:10008000A0000310A00CA00C0C3020040800D530F8
:0A00900081000B1D49280B11080028
:04009A0000340034FA
:02400E00D420BC
:02401000FF3F70
:00000001FF
