:100000000A128A11472F00308A000408840A8207E6
:1000100000343F340034063400345B3400344F3451
:100020000034663400346D3400347D3400340734D9
:0A00300000347F34003467340034DC
:100E8E00F001F101F201F301F401F501F601F701B0
:100E9E0083010A128A11902FFA01FB0179087B0255
:100EAE00031D5B2F78087A020318080064270A12C4
:100EBE008A11FA0A0319FB0A552FD630831603132B
:100ECE0081007A30831281000B1D6B2F0B110800ED
:100EDE00F800F001F101F201F301F401F5013330F4
:100EEE007802031C822FCD30F807F00A0319F10A9D
:100EFE00762FFB30F80705307802031C8C2F802FDD
:100F0E00FF30F807F40A0319F50AF8080319080068
:100F1E00872F60308316031788008901031385011C
:100F2E00860187018801033089009F01D530831225
:100F3E0003139F009F149F18A22F1E08F600F7019F
:100F4E000310F60DF70D0310F60DF70D83161E08A0
:100F5E00FC0006300310FC0CFF3E031DB12F7C0875
:100F6E00F60476080A128A116F270A128A110130C6
:100F7E00831287000310740D013E84000A128A1139
:100F8E0003200A128A118500F801F80AF9010A12E3
:100F9E008A1153270A128A11023083120313870013
:100FAE000310720D013E84000A128A1103200A12E8
:100FBE008A118500F801F80AF9010A128A115327DD
:100FCE000A128A1104308312031387000310700D66
:100FDE00013E84000A128A1103200A128A1185002A
:100FEE00F801F80AF9010A128A1153270A128A1116
:020FFE009D2F25
:04400E00D4E0FFFFFC
:00000001FF
