:060000000A128A115728C4
:10009E0064008001840A0406031900340406502803
:1000AE005B30831384006B300A128A114F20830158
:1000BE000A128A15582A8316B5005330A4008312EB
:1000CE005208D20A84000A128A150A200A128A11CC
:1000DE008316B800B8080319822D3808253A03197B
:1000EE007F2835088400380883138000B50A6628F7
:1000FE00AA01AB01A801A9018312520884000A12B9
:10010E008A150A200A128A11F1250A128A11031C75
:10011E00B8288316AA01AB0183162B08F1002A0812
:10012E00F0000A30F200F301FF258312520884001A
:10013E000A128A150A200A128A119D270A128A119A
:10014E00AA00E127AB008312D20A520884000A12D9
:10015E008A150A200A128A11F1250A128A11031829
:10016E009328520884000A128A150A200A128A114C
:10017E002E3A031DF228831629178312D20A8316EC
:10018E00B601B7018312520884000A128A150A209A
:10019E000A128A11F1250A128A11031CF9288316F4
:1001AE003708F1003608F0000A30F200F301FF259F
:1001BE008312520884000A128A150A200A128A1122
:1001CE009D270A128A11B600E1270A128A11B7007A
:1001DE008312D20AC9288316B601B7012916F92847
:1001EE002915112983125208D20A84000A128A157F
:1001FE000A200A128A118316B800003A0319822DBA
:10020E00643A03191129023A0319F7280F3A031910
:10021E001129662883120730D60183162905831209
:10022E00D70056040319472C8316291E21290630A0
:10023E00B600B7012408840083130008B200840AB4
:10024E000008B300840A0008B4000330A407320883
:10025E00F0003308F1003408F200F301F401F50167
:10026E00C5250A128A1103184D293208F0003308E9
:10027E00F1003408F20033270A128A117008B20016
:10028E007108B3007208B4000330A804B001B101C4
:10029E003408330432040319E329B2308400F627FC
:1002AE000A128A11840A0008D800840A0008D900AC
:1002BE000F300310D90CD80CD70CD60CFF3E031DF3
:1002CE00602957088316B100831256088316B000B2
:1002DE008230B101B007031CB103FF30B007031C1D
:1002EE00B1030330F000F1013108F3003008F200E1
:1002FE00FF257108B1007008B0000A30F600F70152
:10030E003108F9003008F8000A128A156A260A1216
:10031E008A117708B1007608B000B11F9A29FF3014
:10032E00B007031CB1033003FF3A0A128A15D82412
:10033E000A128A1190270A128A11B32783162508EA
:10034E008312B000831626088312B1008316270885
:10035E008312B2000A128A15EC260A128A112D088F
:10036E008316A50083122E088316A60083122F086B
:10037E008316A700DA270A128A118030F301F400DF
:10038E003F30F500C5250A128A110318D329FF3014
:10039E00B007031CB103E329DA270A128A112030B1
:1003AE00F301F4004130F500C5250A128A11031C31
:1003BE00E329B00A0319B10A3708803AFF008030EA
:1003CE007F02031DEC290D3036020318172AFD2774
:1003DE0036080A128A156B230A128A114808BC00C5
:1003EE004908BD004A08BE00831632088312BF00BA
:1003FE00831633088312C000831634088312C1009B
:10040E000A128A1596210A128A113C088316B20026
:10041E0083123D088316B30083123E088316B40080
:10042E00FD273108803AFF0080307F02031D212A0C
:10043E000A3030020318422AFD27340833043204EE
:10044E000319832A3208A8270A128A1118260A12BB
:10045E008A112308220421042004031D832A8316F3
:10046E003108803AFF0080307F02031D402A02309F
:10047E003002031C832AFD27DA270A128A117030F4
:10048E00F3008930F4004030F500C5250A128A11B8
:10049E000318532AF730542AF830B007031CB1035F
:1004AE0030080A128A15D8240A128A1190270A12C5
:1004BE008A11F0003308F1003408F2002508F30029
:1004CE002608F4002708F500BB260A128A117308C5
:1004DE008316A3007208A2007108A1007008A00084
:1004EE002308AF002208AE002108AD002008AC00A2
:1004FE00B201B301B401BE2AFD273208A8270A12A1
:10050E008A1118260A128A1182270A128A11831654
:10051E00AC002F08FB002E08FA002D08F9002C085D
:10052E00F8003B2778088312C8007908C9007A08BA
:10053E00CA00831632088312CB0083163308831247
:10054E00CC00831634088312CD000A128A1580213E
:10055E000A128A1148088316B200831249088316BC
:10056E00B30083124A088316B400B001B101B8017A
:10057E00B80A5B270A128A150A200A128A11D700B6
:10058E000A128A150A200A128A11D8000A128A152E
:10059E000A200A128A11D9000A128A150A200A1292
:1005AE008A11DA0083162F02031DED2A83125908D1
:1005BE0083162E02031DED2A8312580883162D0270
:1005CE00031DED2A8312570883162C02031CF42AEE
:1005DE00B80A38080A3A031DC02A360838078312AB
:1005EE00D600831637080318370AB81BFF3E83124E
:1005FE00D7008316300883125607D80083163108A9
:10060E000318310A83125707D90058088316AA0215
:10061E00831259088316031CAB03AB02370836044A
:10062E0003191D2BFF30AA07031CAB03280803393F
:10063E00031D332B2B08803AFF0080307F02031DF1
:10064E002A2B01302A02031C382BFD273508840083
:10065E00203083138000B50AFF30AA07031CAB03BA
:10066E00212BFD272808033903196F2B3508840029
:10067E002D306B2B65270A128A115B270A128A15F9
:10068E000A200A128A11F0000A128A150A200A128A
:10069E008A11F1000A128A150A200A128A11F20032
:1006AE000A128A150A200A128A116D270A128A1155
:1006BE0073260A128A1178270A128A1187250A12BE
:1006CE008A11C8270A128A11831380008316B50A6D
:1006DE00B803380F412B3108803AFF0080307F027B
:1006EE00031D7B2B01303002031C862BFD273508A2
:1006FE00EF270A128A11B007031CB103722BFD27D4
:10070E003708803AFF0080307F02031D902B09309E
:10071E003602031C952B0830FD27972BFD27360834
:10072E00B8008312D600D701D61BD7038316B602A4
:10073E00831257088316031CB703B7023808031930
:10074E00AE2B350884002E3083138000B50A38088E
:10075E000A128A15D8240A128A113C08B0003D08E4
:10076E00B1003E08B20083163208B3270A128A156A
:10077E00EC260A128A112D08A0002E08A1002F08BF
:10078E00A20018260A128A1182270A128A11362C02
:10079E0065270A128A115B270A128A150A200A1285
:1007AE008A11F0000A128A150A200A128A11F10023
:1007BE000A128A150A200A128A11F2000A128A15E2
:1007CE000A200A128A116D270A128A1173260A123A
:1007DE008A1178270A128A1187250A128A11C827C8
:1007EE000A128A11831380008316B50A5B270A1238
:1007FE008A150A200A128A11A0000A128A150A20E6
:10080E000A128A11A1000A128A150A200A128A11E6
:10081E00A2000A128A150A200A128A11A300831650
:10082E002F088312A70083162E088312A6008316A4
:10083E002D088312A50083162C088312A400872589
:10084E000A128A1123088316AF0083122208831618
:10085E00AE00831221088316AD0083122008831682
:10086E00AC00B803380FCF2B3708360403196628AF
:10087E003508EF270A128A11B607031CB7033B2C63
:10088E008316240884008313F6270A128A11560849
:10089E008316AC00831257088316AD000030AD1BD3
:1008AE00FF30AE00AF00A40AA40AAF1F6B2C0330BA
:1008BE00A804AC09AD09AE09AF09AC0A0319AD0A1B
:1008CE000319AE0A0319AF0A37083604031D772C35
:1008DE002F082E042D042C040319B60A0319B70A87
:1008EE00B801B80A5B270A128A150A200A128A1161
:1008FE00D7000A128A150A200A128A11D8000A1283
:10090E008A150A200A128A11D9000A128A150A209B
:10091E000A128A11DA0083162F02031DA62C8312E7
:10092E00590883162E02031DA62C8312580883160F
:10093E002D02031DA62C8312570883162C02031CAE
:10094E00AD2CB80A38080A3A031D792C3808BE2790
:10095E000A128A113708803A83125802031DBB2CE3
:10096E0083163608831256020318C12CFD2736084B
:10097E00B800D92C8316D1270A128A113708803A6B
:10098E008312D8005708803A5802031DD12C5608FE
:10099E00831636020318D92CFD273808B600B70186
:1009AE00B61BB703FD272B082A040319E62C2808CB
:1009BE0003390319E62CFF30AA07031CAB03291FCA
:1009CE00032D3708803A8312D60083162B08803AFF
:1009DE0083125602031DF62C83162A0836020318BC
:1009EE00002DFD273608AA023708031CAB03AB0205
:1009FE00032DFD27AA01AB013808BE270A128A1162
:100A0E002B08803A83125802031D112D83162A08D3
:100A1E008312560203181F2D8316D1270A128A112C
:100A2E00AA02831257088316031CAB03AB02222DB6
:100A3E00FD27AA01AB012B082A040319342D350812
:100A4E008400203083138000FF30B50AAA07031CF0
:100A5E00AB032B082A04031D262D2808033903197E
:100A6E003E2D350884002D3083138000B50AFF30EB
:100A7E00B607031CB703360A0319370A031966288B
:100A8E000A308312A000A101A201A3018316360829
:100A9E008312D6000310D60D0310560D4F3E840060
:100AAE000A128A150A200A128A11F0000A128A15F1
:100ABE000A200A128A11F1000A128A150A200A1255
:100ACE008A11F2000A128A150A200A128A116D275B
:100ADE000A128A1173260A128A1178270A128A11AB
:100AEE0087250A128A112008303E8316B800350871
:100AFE00840038083B2D35088400831380010800DC
:100B0E0023082204210420040319BC2DFD01FD0A33
:100B1E00A31B972D0310A00DA10DA20DA30D8E2DBD
:100B2E0023082702031DA52D22082602031DA52D2D
:100B3E0021082502031DA52D20082402031CB62D15
:100B4E002008A4022108031C210FA5022208031C61
:100B5E00220FA6022308031C230FA7020310A30CC7
:100B6E00A20CA10CA00CFD0B972D2708A3002608A4
:100B7E00A2002508A1002408A0000800F21FD42D11
:100B8E007008003CF0007108031C710F003CF1006E
:100B9E007208031C720F803CF200F51FE32D7308E0
:100BAE00003CF3007408031C740F003CF40075083D
:100BBE00031C750F803CF5008030F206F5067508B3
:100BCE007202031D080074087102031D08007308E9
:100BDE0070020800F1003A30F00171020318FD2D89
:100BEE0030307102031CFD2DF001F00A700C08006C
:100BFE00F401F501701C092E7208F4070318F50AAA
:100C0E007308F5070310F20DF30D0310F10CF00C41
:100C1E0071087004031D012E7508F1007408F000B0
:100C2E000800E8270A128A110310250D260DAC00C4
:100C3E00AC08031D272EA001A101A201A3010800EB
:100C4E00E8270A128A1117300310A60CA50CA40C63
:100C5E00FF3E031D2B2E2408A700A117A20120087A
:100C6E00A8002108A9002208AA008E30AB01AC0210
:100C7E00AC1F4E2E2C08803A8F3E031C222E0310E2
:100C8E00AB0CAA0CA90CA80CAC0F462E5C2E18307F
:100C9E002C020318222EAC0803195C2E0310A80D8B
:100CAE00A90DAA0DAB0DAC03522E270803196A2EFF
:100CBE00A809A909AA09AB09A80A0319A90A0319BF
:100CCE00AA0A0319AB0A2B08A3002A08A2002908B6
:100CDE00A1002808A0000800F801F901FA01FB01A3
:100CEE0073087204710470040319B22EFC01FC0A1D
:100CFE00F31B872E0310F00DF10DF20DF30D7E2E6A
:100D0E000310F80DF90DFA0DFB0D73087702031D94
:100D1E009A2E72087602031D9A2E71087502031D13
:100D2E009A2E70087402031CAC2E7008F40271081F
:100D3E00031C710FF5027208031C720FF602730882
:100D4E00031C730FF70278140310F30CF20CF10C62
:100D5E00F00CFC0B872E7B08F3007A08F200790862
:100D6E00F1007808F00008007008F6007108F7002E
:100D7E007208F8000310770D780D8312A500A508F0
:100D8E00031DCE2EF001F101F201F30108007308EC
:100D9E00F6007408F7007508F8000310770D780D4B
:100DAE00A400A4080319C92E7F30F117F201F4171D
:100DBE00F501A001A101A201A301A502983024070B
:100DCE00F600A5021830A4000310A00DA10DA20D6F
:100DDE00A30D75087202031DFA2E74087102031D0D
:100DEE00FA2E73087002031C082F7308F0027408A1
:100DFE00031C740FF1027508031C750AF20220140D
:100E0E000310F00DF10DF20DA40BEB2EA51F1C2FF0
:100E1E002508803A973E031CC92E0310A30CA20C82
:100E2E00A10CA00CA50F142F2A2F18302502031881
:100E3E00C92EA50803192A2F0310A00DA10DA20D6E
:100E4E00A30DA503202F2308F3002208F20021088A
:100E5E00F1002008F00008007208710470040319F4
:100E6E0008008030F20608008E30FC00FF307B0553
:100E7E000319482F0310FB0CFA0CF90CF80CFC0AA2
:100E8E003D2F7808F0007908F1007A08F2007C080E
:100E9E00F300F4010A128A1569277008F800710828
:100EAE00F9007208FA00080038088312D600031001
:100EBE00D60D0310560D4F3E840008000A308312E3
:100ECE00A000A101A201A30183160800F30083165E
:100EDE002F08F7002E08F6002D08F5002C08F40058
:100EEE00080073088312A7007208A6007108A500F7
:100EFE007008A400080023088316AF00831222088E
:100F0E008316AE00831221088316AD0083122008CB
:100F1E0008003C088316A50083123D088316A60020
:100F2E0083123E088316A700320808007007D60009
:100F3E000030031801307107D7005608D03E8316D3
:100F4E0008008312A000831633088312A1008316B3
:100F5E0034088312A20008008312AD0083163308F2
:100F6E008312AE00831634088312AF00080083127A
:100F7E00D600D701D61BD7035708803AD800831660
:100F8E0008002008303ED7008316350884008312EF
:100F9E0057080800031338088312D600D701D61B52
:100FAE00D703831608002508F0002608F10027084D
:100FBE00F2000800831257080318013EFF3E831605
:100FCE0008002008A4002108A5002208A600080099
:100FDE008400303083138000FF30B50A080000080B
:100FEE008312D600840A0008D70008008316031364
:100FFE000800FF1B0A2883137F1883170008840A32
:10100E000319FF0A080008308A000408840A8207C0
:10101E000034003480343F34CD34CC343D34D734B6
:10102E0023343C34123483343A34B734D134383424
:10103E00C63427343734383486343534C034D63455
:10104E003334CC342B343234703489343034E73486
:10105E00DB342E34E5343C341E344234A2340D34A9
:10106E00003480343F340034203441340034C834EA
:10107E00423400347A34443440341C3446345034D0
:10108E00C3344734243474344934973418344B34CD
:10109E00BC34BE344C346B346E344E34033415349D
:1010AE0050347934AD346034F3344934713401340E
:1010BE000034003400340A34003400340034643414
:1010CE00003400340034E834033400340034103477
:1010DE00273400340034A0348634013400344034D4
:1010EE0042340F3400348034963498340034003453
:1010FE00E134F53405340034CA349A343B34503478
:10110E0057344D3431343A340034503457344D342E
:10111E0032343A340034253431342E34313466349A
:10112E000034433435343A340034433436343A34AC
:08113E00003425346434003450
:10117C00703073210A128A150310780D790D8312C1
:10118C000313A500A508031DD028F001F101F201FD
:10119C00F3010800733073210A128A150310780DBD
:1011AC00790DA400A4080319CB287030840080307A
:1011BC00840A840A80047030840A84007330840AA0
:1011CC00840A840A800184008030840A840A8004A2
:1011DC007330840A84007F30840A840A840A800174
:1011EC00A001A101A201A301A502A0302407F600D1
:1011FC00A5022030A40073300310A00DA10DA20D88
:10120C00A30D73210A128A15703084000008FA00AD
:10121C00840A0008FB00840A0008FC00840A000809
:10122C00FD0079087D02031D252978087C02031D29
:10123C00252977087B02031D252976087A02031CD1
:10124C004129733073210A128A1570308400760894
:10125C008002840A7708031C770F8002840A7808BE
:10126C00031C780F8002840A7908031C790A800217
:10127C00033084022014703084000310800D840A23
:10128C00800D840A800D840A800DA40B0129A51FF2
:10129C005C292508803A9F3E031CCB280310A30C25
:1012AC00A20CA10CA00CA50F54296A2920302502F0
:1012BC000318CB28A50803196A290310A00DA10D4A
:1012CC00A20DA30DA50360292308F3002208F20048
:1012DC002108F1002008F000080084000008F60046
:1012EC00840A0008F700840A0008F800840A000841
:1012FC00F90008008030CA064B08BC004C08BD0041
:10130C004D08BE004808BF004908C0004A08C1008B
:10131C0096213C08C8003D08C9003E08CA000800D8
:10132C003C08C2003D08C3003E08C4000310430D36
:10133C00440DC7003F08C2004008C3004108C40068
:10134C000310430D440DC60047080319B92946087C
:10135C00470246080318C129C2004708C2021930C7
:10136C004202031CC0293F08BC004008BD004108D4
:10137C00BE00080046080319080047084602031877
:10138C00CF294708C2004608C2021930420203188E
:10139C0008000630C500BE1BC517C11B4517BD177D
:1013AC00BE01C017C101460847020318F6290310F5
:1013BC00BF0DC00DC10DC603460847060319F12920
:1013CC00C503450807390319F129DD290310BE0CA3
:1013DC00BD0CBC0CC70A470846060319122AEC2997
:1013EC00470846020318122A0310BC0DBD0DBE0D92
:1013FC00C7034608470603190E2AC50345080739D3
:10140C0003190E2AFA290310C10CC00CBF0CC60A12
:10141C0047084606031D092AC51F1D2AFF30BC06B6
:10142C00BD06BE06BC0A0319BD0A0319BE0A451F38
:10143C00282AFF30BF06C006C106BF0A0319C00A1E
:10144C000319C10AC5013C08BF073D080311031865
:10145C003D0A031DC0073E08031103183E0A031D75
:10146C00C107C11F442AFF30BF06C006C106BF0A10
:10147C000319C00A0319C10AC501C50A3F08F000C7
:10148C004008F1004108F2004708F3004508F40059
:10149C000A128A1569277008BC007108BD00720811
:1014AC00BE00080083160317880189010313850108
:1014BC0087010F3088000730890080309F000A16A2
:1014CC008A118A270A128A150A168A11EF270A121C
:1014DC008A15D530831203139F009F149F18742A0A
:1014EC001E08E100E00183161E088312E004610867
:1014FC00DF006008DE002830AD00A030AE003B30CD
:10150C00AF006108F9006008F8000A128A15BD24C2
:10151C000A128A157808B0007908B1007A08B2006E
:10152C000A128A15EC260A128A152D08DB002E08E1
:10153C00DC002F08DD008330D2005B08D3005C0890
:10154C00D4005D08D50062300A128A1162200A129A
:10155C008A1500300A168A1167270A128A15773005
:10156C00F5008030F6000A168A116D270A128A15CA
:10157C006230F500F6010A168A116D270A128A15D7
:10158C009130D2005F08D4005E08D30067300A1295
:10159C008A1162200A128A1509300A168A116727E5
:1015AC000A128A158930F5008030F6000A168A1165
:1015BC006D270A128A156730F5000030F6000A16FE
:1015CC008A116D270A128A15D9309F009F149F1813
:1015DC00ED2A1E08E100E00183161E088312E004C8
:1015EC006108DF006008DE002830AD00A030AE00DE
:1015FC003B30AF006108F9006008F8000A128A1548
:10160C00BD240A128A157808B0007908B1007A084E
:10161C00B2000A128A15EC260A128A152D08DB0074
:10162C002E08DC002F08DD008330D2005B08D300CD
:10163C005C08D4005D08D50062300A128A11622061
:10164C000A128A1540300A168A1167270A128A155F
:10165C007D30F5008030F6000A168A116D270A12CB
:10166C008A156230F500F6010A168A116D270A12E6
:10167C008A159130D2005F08D4005E08D300673021
:10168C000A128A1162200A128A1549300A168A1126
:10169C0067270A128A158D30F5008030F6000A167D
:1016AC008A116D270A128A156730F500F6010A16A1
:1016BC008A116D270A128A15F001F00AF1010A1637
:1016CC008A11C1270A128A156F2A8312D1006E3033
:1016DC005102031CF62B0330F9000A30F50064307C
:1016EC00F00051088B240A128A1570240A128A15EC
:1016FC005B270A128A151C3E84000A128A150A20DE
:10170C000A128A15AD000A128A150A200A128A15C5
:10171C00AE000A128A150A200A128A15AF0003308D
:10172C00F9006430F500510870240A128A155B2701
:10173C000A128A15373E84000A128A150A200A12E8
:10174C008A15B0000A128A150A200A128A15B100ED
:10175C000A128A150A200A128A15B2000A128A1570
:10176C00EC260A128A15B6240A128A150330F900DF
:10177C000A30F00051088B240A128A155B270A12D2
:10178C008A15013E84000A128A150A200A128A154B
:10179C00AD000A128A150A200A128A15AE000A1226
:1017AC008A150A200A128A15AE240A128A15EC260A
:1017BC000A128A152D08CB002E08CC002F08CD005C
:1017CC003F30AD01AE01AF004B08B0004C08B1008A
:1017DC004D08B2000A128A15EC260A128A15A72C9B
:1017EC000B305102031C4A2C0330F9000A30F00074
:1017FC0051088B240A128A155B270A128A15013E9E
:10180C0084000A128A150A200A128A15AD000A12DF
:10181C008A150A200A128A15AE000A128A150A20A5
:10182C000A128A15AF000330F9000A30F50051088E
:10183C0070240A128A155B270A128A151C3E840032
:10184C000A128A150A200A128A15B0000A128A1581
:10185C000A200A128A15B1000A128A150A200A12E5
:10186C008A15B2000A128A15EC260A128A15B624B9
:10187C000A128A153F30AD01AE01AE240A128A1548
:10188C00EC260A128A15A72C3F30AD01AE01AF0031
:10189C000330F90051080A128A155B270A128A15BF
:1018AC00013E84000A128A150A200A128A15B00019
:1018BC000A128A150A200A128A15B1000A128A1510
:1018CC000A200A128A15B2000A128A15EC260A128C
:1018DC008A15A72CF600F80175080319892CF70155
:1018EC00F70AF51B7C2C0310F50D762C0310F80D64
:1018FC0075087602031C862C7508F6027814031002
:10190C00F50CF70B7C2C78080800F2000830F3007B
:10191C00F4017208F10007300310F10CFF3E0310C4
:10192C00031D932C740D7104F4000310F20D700858
:10193C007402031CA32C7008F402F30B8F2C740894
:10194C0008002D08C8002E08C9002F08CA0008007E
:10195C00AF004E08B0004F08B1005008B2000800AC
:10196C002D08CE002E08CF002F08D0000800FB0158
:10197C00F91FC72CF809F909F80A0319F90AFB0130
:10198C00FB0A7808F0007908F1008E30F201F300C0
:10199C007B08F40069277008F8007108F9007208D8
:1019AC00FA0008008312C600C61FA42DC609C60A79
:1019BC004608803A123E031C482D0A30CB270A12E7
:1019CC008A15AF260A128A157108F9007008F800FA
:1019DC006A260A128A15E0271C3E84000A128A1510
:1019EC000A200A128A15AD000A128A150A200A1258
:1019FC008A15AE000A128A150A200A128A15E827DF
:101A0C000A128A15F81BF9036A260A128A15BC27D2
:101A1C00373E84000A128A150A200A128A15B00071
:101A2C000A128A150A200A128A15B1000A128A159E
:101A3C000A200A128A15B200EC260A128A15A72768
:101A4C000A128A15F21BF303AF260A128A15B42761
:101A5C00013E84000A128A150A200A128A15AD006A
:101A6C000A128A150A200A128A15AE000A128A1561
:101A7C000A200A128A15F0270A128A15EC260A1275
:101A8C008A15C42F4608803A753E031C8D2D0A30EA
:101A9C00F000F1014608F200F301F21BF303AF264C
:101AAC000A128A15B427013E84000A128A150A20EC
:101ABC000A128A15AD000A128A150A200A128A1512
:101ACC00AE000A128A150A200A128A15F8270A1281
:101ADC008A15F81BF9036A260A128A15BC271C3EC4
:101AEC0084000A128A150A200A128A15B0000A12FA
:101AFC008A150A200A128A15B1000A128A150A20C0
:101B0C000A128A15B200EC260A128A15C42F033069
:101B1C00F90046085B27013E84000A128A150A2048
:101B2C000A128A15BC000A128A150A200A128A1592
:101B3C00BD000A128A150A20BE0008004608803A29
:101B4C00123E031C0E2E0A30CB270A128A15AF2622
:101B5C000A128A157108F9007008F8006A260A1230
:101B6C008A15E027433E84000A128A150A200A12BD
:101B7C008A15AD000A128A150A200A128A15AE00BF
:101B8C000A128A150A200A128A15E8270A128A15DF
:101B9C00F81BF9036A260A128A15BC275E3E8400DC
:101BAC000A128A150A200A128A15B0000A128A151E
:101BBC000A200A128A15B1000A128A150A200A1282
:101BCC008A15B200EC260A128A15A7270A128A1562
:101BDC00F21BF303AF260A128A15B427283E8400A1
:101BEC000A128A150A200A128A15AD000A128A15E1
:101BFC000A200A128A15AE000A128A150A200A1245
:101C0C008A15F0270A128A15EC260A128A15C42F97
:101C1C004608803A753E031C532E0A30F000F10141
:101C2C004608F200F301F21BF303AF260A128A15E1
:101C3C00B427283E84000A128A150A200A128A1533
:101C4C00AD000A128A150A200A128A15AE000A1271
:101C5C008A150A200A128A15F8270A128A15F81B07
:101C6C00F9036A260A128A15BC27433E84000A121D
:101C7C008A150A200A128A15B0000A128A150A203F
:101C8C000A128A15B1000A128A150A200A128A153C
:101C9C00B200EC260A128A15C42F0330F90046084C
:101CAC005B27283E84000A128A150A200A128A151C
:101CBC00BC000A128A150A200A128A15BD000A12E3
:101CCC008A150A20BE000800FB01F71F742EF609C6
:101CDC00F709F60A0319F70AFB01FB0AF91F7D2E17
:101CEC00F809F909F80A0319F90A0130FB06FC0195
:101CFC00FD01770876040319A22EFA01FA0AF71BE4
:101D0C008B2E0310F60DF70D842E0310FC0DFD0D1C
:101D1C0077087902031D942E76087802031C9E2EF8
:101D2C007608F8027708031CF903F9027C140310F7
:101D3C00F70CF60CFA0B8B2E7B080319AA2EFC0958
:101D4C00FD09FC0A0319FD0A7D08F7007C08F60062
:101D5C000800F501F31FB92EF209F309F20A031971
:101D6C00F30AF501F50AF11FC02EF009F109F00A8A
:101D7C000319F10A710870040319DF2EF401F40A37
:101D8C00F11BCC2E0310F00DF10DC52E7108730252
:101D9C00031DD22E70087202031CDB2E7008F20297
:101DAC007108031CF303F3020310F10CF00CF40B99
:101DBC00CC2E75080319E72EF209F309F20A031960
:101DCC00F30A7308F1007208F00008002D08B30044
:101DDC002E08B4002F08B5000310340D350DB600D5
:101DEC00B608031DFD2EAD01AE01AF010800300891
:101DFC00B3003108B4003208B5000310340D350DB2
:101E0C00BB00BB08031D0E2FAD01AE01AF010800D6
:101E1C003B087B3EB6072F08BB003208BB06803060
:101E2C00BB050730AE17B117B201B701B801B90144
:101E3C00BA002D1C292F3008D6270A128A15031830
:101E4C00320A031DB9070310AF0CAE0CAD0C031016
:101E5C00B00DB10DB20DBA0B1F2F0930BA002D1CED
:101E6C003F2F3008D6270A128A150318320A031D91
:101E7C00B9070310AF0CAE0CAD0C0310B90CB80CB9
:101E8C00B70CBA0B352F3708F0003808F1003908B9
:101E9C00F2003608F3003B08F40069277008AD0027
:101EAC007108AE007208AF000800FB00FA01790857
:101EBC007B18FA070310F90D0310FB0CFB08031D2C
:101ECC005D2F7A08080073080319712F72087104CA
:101EDC007004031D7A2FF001F101F2010800F30ADE
:101EEC000310F20CF10CF00CFE3072050319892F63
:101EFC00752FF30AF00A0319F10A0319F20A0310F9
:101F0C00F20CF10CF00CFF3072050319932F7F2F9C
:101F1C00F3030310F00DF10DF20DF11F8E2F731C56
:101F2C00F1130310F30C7308F700F601F5017508B3
:101F3C00F0047608F1047708F2047408031DF21714
:101F4C0008002D08C3002E08C4002F08C5000A3055
:101F5C00F000F1014608F200F30108007008BF0020
:101F6C007108C0003F083F073F0708007608C10012
:101F7C007708C20041084107410708002D08BC0042
:101F8C002E08BD002F08BE000800F600F701460819
:101F9C00F200F301F21BF3036430F000F1010800CE
:101FAC00B707310803110318310A031DB8073208AB
:101FBC00031108007608BF007708C0003F083F07F0
:101FCC003F070800AF006430F600F7014608F80040
:101FDC00F9010800AF004308B0004408B1004508FF
:101FEC00B2000800AF000A30F600F7014608F8000E
:041FFC00F9010800DF
:102ECE00F500831287117508803ED22F871576087C
:102EDE00FF00750884000A128A1500200A168A114E
:102EEE000038031908007608FF00750884000A12DE
:102EFE008A1500200A168A11D2270A168A11F50A97
:102F0E000319F60A6E2F8701880183120F3087117D
:102F1E0007100712F000F101C1270A168A110330BB
:102F2E008312031388000A3007140710F000F10112
:102F3E00C1270A168A11F8270A168A11C1270A16FE
:102F4E008A11F8270A168A11C1270A168A11023029
:102F5E00831203138800283007140710D2270A168D
:102F6E008A110F30D2270A168A11EF270A168A11F4
:102F7E000630D22FF201F30173087102031DC92F1F
:102F8E0072087002031C0800E4270A168A11F20A5E
:102F9E000319F30AC32FF400F001F00AF101C1275F
:102FAE00740E0F3983120313880007140710740868
:102FBE000F398800071407100800D1308316031349
:102FCE0081000E30831281000B1DEB2F0B110800B8
:102FDE0001308711D2270A168A110230F000F10152
:102FEE00C12F831203130A3007140710F000F101EA
:022FFE000800C9
:04400E00D4E0FFFFFC
:00000001FF
