:060000000A128A11882F8C
:100F10000F30F800F030F90083010A128A11B92F5E
:100F2000F600F50174087618F5070310F40D0310A8
:100F3000F60CF608031D922F75080800F500F7015E
:100F400074080319B72FF601F60AF41BAA2F031031
:100F5000F40DA42F0310F70D74087502031CB42FB1
:100F60007408F50277140310F40CF60BAA2F770817
:100F70000800831603178801890103138501FF30D8
:100F80008600870088018901E02F73087207DE2F31
:100F900073087202DE2F7308F40072080A128A11B5
:100FA00090270A128A11DE2F7208F40073080A12C1
:100FB0008A119E270A128A11DE2FFF30F100850068
:100FC00083120608F8000608F900780E0F39F200BF
:100FD000F030F90EF905790E0F39F3000708F0002B
:100FE000003A0319C52F013A0319C82F033A031910
:100FF000CB2F013A0319D42FDD2F0A128A110028B2
:04400E00D4E0FFFFFC
:00000001FF
