:020000040000FA
:10000000831603178801890183160313FF308600C6
:1000100087018501880189018312031306087F394E
:10002000A9007F30290603193B283F302906031910
:1000300039281F302906031937280F3029060319DC
:1000400035280730290603193328033029060319F8
:1000500031280130290603192F28DB303D28C8300C
:100060003D28B7303D2893303D2840303D28203092
:100070003D2810303D2808303D28B000861F4D280F
:10008000013085005A20023085005A200430850056
:100090005A20083085005A200E28083085005A2042
:1000A000043085005A20023085005A200130850036
:1000B0005A200E283008A8000830A7000330A000FE
:1000C00000000000A00B6028A70B5E28A80B5C288E
:0200D000080026
:0400D20000340034C2
:02400E00D420BC
:02401000FF3F70
:00000001FF
