:020000040000FA
:10000000831603178801890183160313850186016E
:10001000870188018901D1308100831203131E30CA
:10002000A0001228FE308500103087002225A00B8A
:1000300012281E30A000FE308500113087002225D6
:10004000FD308500013087002225A00B1B281E30C3
:10005000A000FE308500033087002225FD3085009A
:10006000133087002225A00B29281E30A000FE3067
:100070008500073087002225FD3085000730870086
:100080002225FB308500103087002225A00B372861
:100090001E30A000FE3085000E3087002225FD3086
:1000A00085000E3087002225F7308500103087004C
:1000B0002225A00B4A281E30A000FE3085001D30EE
:1000C00087002225FD3085001D3087002225FB306A
:1000D0008500013087002225F73085001030870029
:1000E0002225A00B5D282830A000FE3085003B3083
:1000F00087002225FD3085003B3087002225FB301C
:100100008500133087002225A00B75281E30A00023
:10011000FE308500773087002225FD30850077305E
:1001200087002225FB308500073087002225F73025
:100130008500103087002225A00B88281E30A000E3
:10014000FE308500EE3087002225FD308500EE3040
:1001500087002225FB3085000E3087002225F730EE
:100160008500003087002225EF30850010308700A1
:100170002225A00BA0281E30A000FE308500DD3017
:1001800087002225FD308500DD3087002225FB30E9
:1001900085001D3087002225F7308500013087005B
:1001A0002225EF308500103087002225A00BBD28C6
:1001B0001E30A000FE308500BB3087002225FD30B8
:1001C0008500BB3087002225FB3085003B3087004F
:1001D0002225F7308500133087002225EF30850077
:1001E000003087002225A00BDA281E30A000FE3048
:1001F0008500773087002225FD3085007730870025
:100200002225FB308500773087002225F7308500D6
:10021000073087002225EF30850010308700222527
:10022000A00BF7281E30A000FE308500EE308700BE
:100230002225FD308500EE3087002225FB30850029
:10024000EE3087002225F73085000E30870022250A
:10025000EF308500003087002225DF308500103028
:1002600087002225A00B14291E30A000FE30850037
:10027000DD3087002225FD308500DD308700222516
:10028000FB308500DC3087002225F73085001C30EC
:1002900087002225EF308500003087002225DF30DF
:1002A0008500103087002225A00B36291E30A000C3
:1002B000FE308500BB3087002225FD308500BB3035
:1002C00087002225FB308500B83087002225F730D3
:1002D0008500383087002225EF30850010308700F8
:1002E0002225DF308500003087002225A00B582909
:1002F0001E30A000FE308500773087002225FD30BB
:100300008500773087002225FB308500703087001C
:100310002225F7308500703087002225EF308500D8
:10032000103087002225DF3085000030870022252D
:10033000A00B7A291E30A000FE308500EE30870029
:100340002225FD308500EE3087002225FB30850018
:10035000E03087002225F7308500E0308700222535
:10036000EF308500103087002225DF308500003017
:1003700087002225A00B9C291E30A000FE3085009E
:10038000DD3087002225FD308500DD308700222505
:10039000FB308500C13087002225F7308500D03042
:1003A00087002225EF308500003087002225DF30CE
:1003B0008500003087002225A00BBE291E30A0003A
:1003C000FE308500BB3087002225FD308500BB3024
:1003D00087002225FB308500933087002225F730E7
:1003E0008500803087002225EF30850000308700AF
:1003F0002225DF308500003087002225A00BE02970
:100400001E30A000FE308500773087002225FD30A9
:100410008500773087002225FB3085000730870074
:100420002225F7308500103087002225EF30850027
:10043000003087002225DF3085000030870022252C
:10044000A00B022A1E30A000FE308500EE3087008F
:100450002225FD308500EE3087002225FB30850007
:100460000E3087002225F7308500003087002225D6
:10047000EF308500103087002225DF308500003006
:1004800087002225A00B242A1E30A000FE30850004
:10049000DC3087002225FD308500DC3087002225F6
:1004A000FB3085001C3087002225F73085000130A5
:1004B00087002225EF308500113087002225DF30AC
:1004C0008500013087002225A00B462A1E30A0009F
:1004D000FE308500B83087002225FD308500B83019
:1004E00087002225FB308500383087002225F73031
:1004F0008500123087002225EF308500023087000A
:100500002225DF308500023087002225A00B682AD3
:100510001E30A000FE308500703087002225FD309F
:100520008500713087002225FB3085007030870000
:100530002225F7308500043087002225EF30850022
:10054000143087002225DF30850004308700222503
:10055000BF308500013087002225A00B8A2A1E307B
:10056000A000FE308500E03087002225FD308500A8
:10057000E23087002225FB308500E030870022250D
:10058000F7308500083087002225EF3085001830CD
:1005900087002225DF308500083087002225BF3004
:1005A0008500023087002225A00BB12A1E30A00052
:1005B000FE308500C03087002225FD308500C43024
:1005C00087002225FB308500C03087002225F730C8
:1005D0008500103087002225EF3085001830870015
:1005E0002225DF308500103087002225BF308500AE
:1005F000043087002225A00BD82A1E30A000FE3030
:100600008500803087002225FD30850088308700F6
:100610002225FB308500803087002225F7308500B9
:10062000203087002225EF308500383087002225D2
:10063000DF308500203087002225BF30850008305C
:1006400087002225A00BFF2A1E30A000FE30850067
:10065000013087002225FD308500103087002225DB
:10066000FB308500003087002225F73085004030C0
:1006700087002225EF308500593087002225DF30A2
:100680008500403087002225BF308500103087006C
:100690002225A00B262B1E30A000FE308500023044
:1006A00087002225FD308500203087002225FB3081
:1006B0008500003087002225F730850088308700CC
:1006C0002225EF308500923087002225DF3085001B
:1006D000803087002225BF3085002030870022250A
:1006E000A00B4D2B1E30A000FE308500043087008B
:1006F0002225FD308500403087002225FB30850013
:10070000003087002225F730850018308700222529
:10071000EF308500043087002225DF30850000306F
:1007200087002225BF308500403087002225A00B9E
:10073000742B1E30A000FE30850008308700222573
:10074000FD308500803087002225FB308500083091
:1007500087002225F7308500103087002225EF30F2
:100760008500083087002225DF30850000308700B3
:100770002225BF308500803087002225A00B9B2BCF
:100780001E30A000FE308500103087002225FD308D
:100790008500003087002225FB3085001830870057
:1007A0002225F7308500003087002225EF308500B4
:1007B000103087002225DF30850000308700222599
:1007C000BF308500003087002225A00BC22B1E30D1
:1007D000A000FE308500203087002225FD308500F6
:1007E000013087002225FB30850019308700222543
:1007F000F7308500013087002225EF30850020305A
:1008000087002225DF308500003087002225BF3099
:100810008500003087002225A00BE92B1E30A000A8
:10082000FE308500403087002225FD3085000230F3
:1008300087002225FB3085001A3087002225F730FB
:100840008500023087002225EF3085004030870088
:100850002225DF308500003087002225BF3085004B
:10086000003087002225A00B102C1E30A000FE3087
:100870008500803087002225FD3085000430870008
:100880002225FB3085001C3087002225F7308500AB
:10089000043087002225EF30850080308700222534
:1008A000DF308500003087002225BF308500003012
:1008B00087002225A00B372C1E30A000FE308500BB
:1008C000003087002225FD30850008308700222572
:1008D000FB308500183087002225F730850008306E
:1008E00087002225EF308500003087002225DF3089
:1008F0008500003087002225BF308500003087004A
:100900002225A00B5E2C1E30A000FE30850000309A
:1009100087002225FD308500103087002225FB301E
:100920008500103087002225F730850010308700C1
:100930002225EF308500003087002225DF3085003A
:10094000003087002225BF30850000308700222537
:10095000A00B852C1E30A000FE30850000308700E3
:100960002225FD308500203087002225FB308500C0
:10097000303087002225F73085002030870022257F
:10098000EF308500003087002225DF308500003001
:1009900087002225BF308500003087002225A00B6C
:1009A000AC2C1E30A000FE308500003087002225D0
:1009B000FD308500503087002225FB308500403017
:1009C00087002225F7308500403087002225EF3050
:1009D0008500003087002225DF3085000030870049
:1009E0002225BF308500003087002225A00BD32CA4
:1009F0001E30A000FE308500103087002225FD301B
:100A00008500803087002225FB30850080308700FC
:100A10002225F7308500803087002225EF308500C1
:100A2000003087002225DF30850000308700222536
:100A3000BF308500003087002225A00BFA2C1E3025
:100A4000A0000F289F3081000B1D242D0B110800E2
:02400E00D420BC
:02401000FF3F70
:00000001FF
