:100000000A128A116A2C00308A000408840A8207C6
:100010000034013400340A34003464340034E834E9
:0E002000033410342734253464342034003483
:1008AC00831203138C1E562C1A0808008316193059
:1008BC0087170713990090308312980026308316FF
:1008CC009800031787010800A001A101A201A30150
:1008DC00A401A501A601A701A801A901AA01AB01C8
:1008EC00AC01AD01AE0183010A128A117D2C60307E
:1008FC008316031788008901FF30031386008501D6
:10090C00880187010730890083129200FF3083161B
:10091C0092008030831295000C3097000A128A11D5
:10092C001D270A128A110A128A115C240A128A11D2
:10093C0003139F130A128A1156240A128A110A12DF
:10094C008A11E1250A128A11831203132A08FD0069
:10095C002908FC000B300A128A11D8240A128A11B9
:10096C002C08FD002B08FC000B300A128A11D8242D
:10097C000A128A112E08FD002D08FC000B300A12F9
:10098C008A11D8240A128A110A30F000F1010A12D5
:10099C008A1153270A128A110A128A11BF250A12C8
:1009AC008A11A02CB3007C30B1003308B30A840048
:1009BC000A128A1103200A128A11B900B908031904
:1009CC000800253A0319EF2C39086B250A128A11F5
:1009DC00DB2CB2013308B30A84000A128A110320FB
:1009EC000A128A11B900003A03196A2D643A0319E4
:1009FC00032D0D3A0319032DDB2C3108840000085C
:100A0C00B500840A0008B600B10AB10AB61F152D4C
:100A1C000330B204B509B609B50A0319B60AB9010F
:100A2C00B90A0310390D013E84000A128A11032001
:100A3C000A128A11AF000A128A1103200A128A11B3
:100A4C00B0003602031D2C2D2F083502031C332D4C
:100A5C00B90A3908053A031D172D32080339031951
:100A6C003B2D2D306B250A128A113908B400662DE6
:100A7C000A30F700F8010310340D013E84000A120D
:100A8C008A1103200A128A11F0000A128A1103201B
:100A9C000A128A11F1003608F3003508F2007125AC
:100AAC000A128A117108FA007008F9009B250A12C3
:100ABC008A117708303EB90039086B250A128A1161
:100ACC00B403340F3E2DDB2C0800F0000C1E6C2DF3
:100ADC00700899000800F401F501710870040319FD
:100AEC00962DF601F60AF11B7F2D0310F00DF10D7A
:100AFC00782D0310F40DF50D71087302031D882D6C
:100B0C0070087202031C922D7008F2027108031C0B
:100B1C00F303F30274140310F10CF00CF60B7F2D9D
:100B2C007508F1007408F0000800780877040319C0
:100B3C00BA2DFB01FB0AF81BA72D0310F70DF80DBE
:100B4C00A02D78087A02031DAD2D77087902031CBD
:100B5C00B62D7708F9027808031CFA03FA02031081
:100B6C00F80CF70CFB0BA72D7A08F8007908F700A6
:100B7C000800FD272A08F5002908CB270A128A113C
:100B8C009500D9270A128A119700F001F00AF10199
:100B9C0053270A128A11FD272C08F5002B08CB27A6
:100BAC000A128A119B00D9270A128A119D00F001A2
:100BBC00F00AF101532FD5309F009F149F18E42D9C
:100BCC001E08A900AA010310A90DAA0D0310A90D56
:100BDC00AA0D83161E088312B80006300310B80C39
:100BEC00FF3E031DF42D3808A9042A08F900290832
:100BFC00F8009E260A128A117808A0007908A10034
:100C0C007A08A200EE270A128A112008FB0021089C
:100C1C00FC002208FD00AE260A128A117808A000FA
:100C2C007908A1007A08A200F001F00AF10153271B
:100C3C000A128A11D930FD279F009F149F18242E69
:100C4C001E08AB00AC010310AB0DAC0D0310AB0DCB
:100C5C00AC0D83161E088312B80006300310B80CB6
:100C6C00FF3E031D342E3808AB042C08F9002B086A
:100C7C00F8009E260A128A117808A3007908A400AD
:100C8C007A08A500EE270A128A112308FB00240813
:100C9C00FC002508FD00AE260A128A117808A30074
:100CAC007908A4007A08A500F001F00AF101532795
:100CBC000A128A11DD30FD279F009F149F18642EA5
:100CCC001E08AD00AE010310AD0DAE0D0310AD0D41
:100CDC00AE0D83161E088312B80006300310B80C34
:100CEC00FF3E031D742E3808AD042E08F9002D08A4
:100CFC00F8009E260A128A117808A6007908A70027
:100D0C007A08A800EE270A128A112608FB00270889
:100D1C00FC002808FD00AE260A128A117808A600ED
:100D2C007908A7007A08A800F001F00AF101532F06
:100D3C007808F0007908F1008E30F201F300F4012C
:100D4C0084277008F8007108F9007208FA0008008E
:100D5C007808AF007908B0007A08B1000310300DA4
:100D6C00310DB200B208031DBF2EF801F901FA01D2
:100D7C0008007B08AF007C08B0007D08B1000310B0
:100D8C00300D310DB700B708031DD02EF801F90155
:100D9C00FA01080037087B3EB2077A08B7007D08D5
:100DAC00B7068030B7050730F917FC17FD01B30102
:100DBC00B401B501B600781CEB2E7B08E4270A12AF
:100DCC008A1103187D0A031DB5070310FA0CF90CE0
:100DDC00F80C0310FB0DFC0DFD0DB60BE12E0930CC
:100DEC00B600781C012F7B08E4270A128A1103181D
:100DFC007D0A031DB5070310FA0CF90CF80C03104F
:100E0C00B50CB40CB30CB60BF72E3308F000340849
:100E1C00F1003508F2003208F3003708F40084279B
:100E2C007008F8007108F9007208FA0008000F3019
:100E3C00871107100712F000F10153270A128A11CB
:100E4C000330FD2788000A3007140710F000F10169
:100E5C0053270A128A11F5270A128A1153270A12EC
:100E6C008A11F5270A128A1153270A128A110230A5
:100E7C00FD27880028300714071064270A128A11EE
:100E8C000C3064270A128A110F3064270A128A1157
:100E9C00C2270A128A110630642FF201F30173087B
:100EAC007102031D5B2F72087002031C0800772768
:100EBC000A128A11F20A0319F30A552FF400F001F1
:100ECC00F00AF10153270A128A11740E0F39FD270B
:100EDC0088000714071074080F39880007140710CE
:100EEC000800D1308316031381000E308312810069
:100EFC008E3081000B1D802F0B1108007308031915
:100F0C008C2F720871047004031D952FF001F101F0
:100F1C00F2010800F30A0310F20CF10CF00CFE3095
:100F2C0072050319A42F902FF30AF00A0319F10A82
:100F3C000319F20A0310F20CF10CF00CFF307205DD
:100F4C000319AE2F9A2FF3030310F00DF10DF20DD0
:100F5C00F11FA92F731CF1130310F30C7308F70086
:100F6C00F601F5017508F0047608F1047708F2042F
:100F7C007408031DF21708000130871164270A1248
:100F8C008A110230F000F101532FF4000310F50C1C
:100F9C00F40C0310F50CF40C74089E0083169E01DF
:100FAC0083121E08080083161E08F4000310F40CAC
:100FBC000310F40C74080C3883120800B3077C0877
:100FCC00031103187C0A031DB4077D0803110800E4
:100FDC002830F800A030F9003B30FA0008008312EA
:100FEC0003130A3007140710F000F10108008312F4
:040FFC0003130800D3
:04400E00F4E0FFFFDC
:00000001FF
