:020000040000FA
:10000000831603178801890183160313FF308608BE
:1000100085010730870188018901831203130608CF
:10002000A0000F39A2002008F039A100A10EA30101
:100030000708A40003192228240B262822082102DD
:10004000A3004D2822082107A3004D28A208031968
:100050004D28A10803194D28023024020319352820
:1000600003302402031947284D28210822020318CF
:100070003E282108A6002208A50042282208A60042
:100080002108A5002608A307A50B42284D28210812
:10009000A202031C4D28A30A4728230885000F2825
:1000A0000430A800FA30A700F930A0000000A00B2F
:0C00B0005628A70B5428A80B5228080063
:02400E00D420BC
:02401000FF3F70
:00000001FF
