:060000000A128A11C42F50
:100F880083010A128A11E42FF201F3017108730236
:100F9800031DD02F7008720203180800D9270A12FF
:100FA8008A11F20A0319F30ACA2FD13083160313E0
:100FB80081000F30831281000B1DE02F0B110800F8
:100FC800831603178801890103138501FF30860002
:100FD8008701880103308900831203130608F4008F
:100FE80085000A30F000F1010A128A11C8270A1296
:080FF8008A1100000000F02F37
:04400E00D4E0FFFFFC
:00000001FF
