:100000000A128A117B2CFF1B0D2883137F1883177C
:100010000008840A0319FF0A080000308A00040857
:10002000840A82070034013400340A340034643412
:100030000034E83403341034273449344E3449341E
:100040004334493441344E3444344F342E342E3406
:100050002E340034533449344E3420345234413435
:100060004E3447344F340034443469347334743478
:100070003A340034203425346434203400342534B8
:0A0080006434003463346D3400343E
:1008E4008C1E722C1A0808000C1E762C70089900B5
:1008F4000800B401B501B601B701B801B901BA01E4
:10090400BB0183010A128A11092F83161930871734
:1009140007139900903083129800263083169800AC
:10092400031787010800FD007D0884000008203AB1
:10093400031D9E2CFD0A962C7D0884000008093AAC
:1009440003199C2CFB01FC01FA017D0884000008BA
:100954002D3A031DAF2CFA0AD92C7D088400000817
:100964002B3A0319D92C7D0884000008EF240A12BD
:100974008A11031CDB2C7D0884007C08F1007B08B1
:10098400F0000A30F200F301FD240A128A11000873
:100994007007F8000030031801307107F900780877
:1009A400D03EFB0079080318013EFF3EFC00FD0A1F
:1009B400B52C7A080319EA2C7B09F8007C09F900A4
:1009C400F80A0319F90A7808F6007908F70008000C
:1009D4007C08F7007B08F6000800F1003A30F001CB
:1009E40071020318FB2C30307102031CFB2CF00144
:1009F400F00A700C0800F401F501701C072D720850
:100A0400F4070318F50A7308F5070310F20DF30D44
:100A14000310F10CF00C71087004031DFF2C750811
:100A2400F1007408F0000800F500B125871175087D
:100A3400803E802D87157608FF00750884000A1211
:100A44008A1103200A128A11003803190800760853
:100A5400FF00750884000A128A1103200A128A1101
:100A640080250A128A11F50A0319F60A1D2D0F3082
:100A7400871107100712F000F1016F250A128A117D
:100A84000330B12588000A3007140710F000F10183
:100A94006F250A128A11A9250A128A116F250A12D2
:100AA4008A11A9250A128A116F250A128A110230A5
:100AB400B125880028300714071080250A128A11EE
:100AC4000C3080250A128A110F3080250A128A11EF
:100AD400A0250A128A110630802DF201F301730851
:100AE4007102031D772D72087002031C0800932500
:100AF4000A128A11F20A0319F30A712DF400F001A3
:100B0400F00AF1016F250A128A11740E0F39B1250A
:100B140088000714071074080F3988000714071099
:100B24000800D2308316031381000E308312810033
:100B34008E3081000B1D9C2D0B1108000130871194
:100B440080250A128A110230F000F1016F2D831200
:100B540003130A3007140710F000F1010800831290
:100B640003130800AC000130AE01AF002A30AD0021
:100B74002C08FC002D30FD002E30D02DAD00AF0030
:100B84002B30B001AE002A08FC002E30FD002F30BF
:100B9400D0252F088400831380010800A9007C0855
:100BA400FC0A84000A128A110D200A128A11831287
:100BB4000313A800A8080319A22E2808253A03192C
:100BC400F92D2908013E8400831380080319F22DAE
:100BD4002808FA260A128A1100270A128A11D12D2E
:100BE400290884000008F3260A128A11D12DA201D3
:100BF4007C08FC0A84000A128A110D200A128A1148
:100C0400A800003A0319A22E643A03190D2E0D3AD6
:100C140003190D2ED12D7D08840083130008A00034
:100C240002308007200884000008A400840A000819
:100C3400A500A51F242E0330A204A409A509A40A13
:100C44000319A50AA801A80A0310280D013E84006F
:100C54000A128A110D200A128A11A0000A128A119E
:100C64000D200A128A11A1002502031D3B2E200823
:100C74002402031C422EA80A2808053A031D262E26
:100C84002208033903195E2E2908013E84008313C8
:100C940080080319552E2D30FA260A128A110027CE
:100CA4000A128A115E2E29088400000884002D305F
:100CB400800029088400800A831203132808A300F3
:100CC4009C2E0A30F700F8010310230D013E840026
:100CD4000A128A110D200A128A11F0000A128A11CE
:100CE4000D200A128A11F1002508F3002408F200ED
:100CF400A5260A128A117108FA007008F900CF2695
:100D04000A128A117708303EA8002908013E84009F
:100D1400831380080319962E2808FA260A128A11CA
:100D240000270A128A119C2E290884000008F32641
:100D34000A128A1183120313A303230F632ED12DE6
:100D4400FC01FD010800F401F501710870040319A8
:100D5400CA2EF601F60AF11BB32E0310F00DF10DA5
:100D6400AC2E0310F40DF50D71087302031DBC2E97
:100D740070087202031CC62E7008F2027108031C6C
:100D8400F303F30274140310F10CF00CF60BB32EFE
:100D94007508F1007408F000080078087704031956
:100DA400EE2EFB01FB0AF81BDB2E0310F70DF80DEA
:100DB400D42E78087A02031DE12E77087902031CE9
:100DC400EA2E7708F9027808031CFA03FA020310E2
:100DD400F80CF70CFB0BDB2E7A08F8007908F70007
:100DE400080084002808800029088400800A08007C
:100DF400F0002908013E840000080800FF000730C5
:100E04008A007F088207052F0A128A11762C83161E
:100E14000317880189018312031386018316861040
:100E24008501880187018901FF309F0083129001A9
:100E34008F018E01861006100A128A1139250A12B2
:100E44008A110A128A1187240A128A1100300A129E
:100E54008A1116250A128A110B30F5008030F6002B
:100E64000A128A111C250A128A110630B3001330A3
:100E7400B200B130B100B10B3D2FB20B3D2FB30B1B
:100E84003D2F442F831203138F018E01B601B70146
:100E94000A128A1172240A128A110A128A11A025CE
:100EA4000A128A11831203138610582F8312031314
:100EB40003308614B100B10B5D2F83120313861027
:100EC400061C622F1014682F0C186A2F0618662F40
:100ED40010100C18732F0F08B700B6010E08B604D3
:100EE400762FB601B7010C103A30F000F101370843
:100EF400F3003608F2000A128A11A5260A128A1192
:100F04007108B7007008B6000030370203300319C7
:100F14003602031C942F013037025F300319360266
:100F2400031C9C2F00300A128A1116250A128A11FA
:100F34001830E92F00303702043003193602031841
:100F4400AA2F013037025E30031936020318F12F3D
:100F54002D30AA003708AC003608AB0038300A122E
:100F64008A11C0250A128A1138300A128A1195246E
:100F74000A128A117708B5007608B4003508AB0068
:100F84003408AA0028300A128A11B4250A128A11D8
:100F940000300A128A1116250A128A112230F5002D
:100FA4008030F6000A128A111C250A128A11383080
:100FB400F5000030F6000A128A111C250A128A1163
:100FC4000A300A128A1116250A128A113030F500E5
:100FD4008030F6000A128A111C250A128A11023086
:100FE400B3000430B200BA30B100B10BF72FB20B2A
:0A0FF400F72FB30BF72F6400442F12
:04400E00F4E0FFFFDC
:00000001FF
