:020000040000FA
:10000000831603178801890183160313850186016E
:10001000870188018901D3308100831203133C30AA
:10002000A000122800308500013087008625163098
:100030008500023087008625003085000430870067
:100040008625003085000830870086250030850031
:100050000030870086250030850010308700862517
:1000600000308500203087008625003085008030F4
:1000700087008625A00B12283C30A0008625003082
:1000800085000130870086251C30850002308700FE
:1000900086250030850004308700862500308500E5
:1000A00008308700862500308500103087008625BF
:1000B00000308500203087008625003085004030E4
:1000C0008700862500308500803087008625A00BBC
:1000D0003F283C30A0008625003085000130870095
:1000E00086251C308500023087008625003085007B
:1000F000043087008625003085000830870086257B
:100100004030850010308700862500308500203083
:100110008700862500308500403087008625003026
:100120008500803087008625A00B6C283C30A0001D
:10013000862500308500013087008625383085000F
:100140000230870086250030850004308700862530
:10015000003085000830870086254030850010304B
:1001600087008625003085002030870086250030F6
:10017000850040308700862500308500803087006C
:100180008625A00B99283C30A000862500308500EC
:100190000130870086257030850002308700862573
:1001A0000030850004308700862500308500083047
:1001B0008700862540308500103087008625003076
:1001C000850020308700862500308500403087007C
:1001D000862500308500803087008625A00BC62844
:1001E0003C30A00086250030850001308700862540
:1001F000603085000230870086254030850004305D
:10020000870086250030850008308700862540302D
:10021000850010308700862500308500203087005B
:100220008625003085004030870086250030850017
:10023000803087008625A00BF3283C30A00086255F
:10024000003085000130870086254030850002306F
:1002500087008625403085000430870086254030A1
:1002600085000830870086254030850010308700E3
:1002700086250030850020308700862500308500E7
:100280004030870086250030850080308700862535
:10029000A00B20293C30A0008625003085000130CD
:1002A0008700862540308500023087008625403053
:1002B000850004308700862540308500083087009F
:1002C0008625403085001030870086250030850067
:1002D0002030870086250030850040308700862545
:1002E00020308500803087008625A00B4D293C30CA
:1002F000A00086250030850001308700862500306B
:100300008500023087008625403085000430870054
:1003100086254030850008308700862540308500DE
:1003200010308700862540308500203087008625E4
:1003300000308500403087008625203085008030E1
:1003400087008625A00B7A293C30A0008625003046
:100350008500013087008625003085000230870047
:1003600086250030850004308700862540308500D2
:1003700008308700862540308500103087008625AC
:100380004030850020308700862540308500403091
:100390008700862520308500803087008625A00BC9
:1003A000A7293C30A0008625003085000130870059
:1003B00086250030850002308700862500308500C4
:1003C00004308700862500308500083087008625A8
:1003D0004030850010308700862540308500203071
:1003E00087008625603085004030870086252030D4
:1003F0008500803087008625A00BD4293C30A000E2
:100400008625003085000130870086250030850074
:10041000023087008625003085000430870086255D
:100420000030850008308700862541308500103077
:100430008700862540308500203087008625603083
:100440008500403087008625203085008030870079
:100450008625A00B012A3C30A000862500308500AF
:100460000130870086250030850002308700862510
:100470000030850004308700862500308500083074
:1004800087008625013085001030870086254030A2
:100490008500203087008625603085004030870049
:1004A000862530308500803087008625A00B2E2AD7
:1004B0003C30A0008625003085000130870086256D
:1004C000003085000230870086250030850004302A
:1004D000870086250030850008308700862501309A
:1004E0008500103087008625003085002030870089
:1004F00086256030850040308700862538308500AD
:10050000803087008625A00B5B2A3C30A000862522
:1005100000308500013087008625003085000230DC
:10052000870086250030850004308700862500304E
:10053000850008308700862501308500103087004F
:1005400086250030850020308700862520308500F4
:100550004030870086253C30850080308700862526
:10056000A00B882A3C30A000862500308500013091
:100570008700862500308500023087008625003000
:10058000850004308700862500308500083087000C
:1005900086250130850010308700862500308500D3
:1005A000203087008625043085004030870086256E
:1005B0003C308500803087008625A00BB52A3C3072
:1005C000A000862500308500013087008625003098
:1005D00085000230870086250030850004308700C2
:1005E000862500308500083087008625013085008B
:1005F0001030870086250030850020308700862552
:10060000063085004030870086251C30850080300C
:1006100087008625A00BE22A3C30A000862500300A
:100620008500013087008625003085000230870074
:10063000862500308500043087008625003085003F
:100640000830870086250130850010308700862518
:100650000030850020308700862507308500403037
:10066000870086250C308500803087008625A00B0A
:100670000F2B3C30A000862500308500013087001C
:1006800086250030850002308700862500308500F1
:1006900004308700862500308500083087008625D5
:1006A000013085001030870086250030850020301D
:1006B00087008625073085004030870086250C306E
:1006C0008500803087008625A00B3C2B3C30A000A5
:1006D00086250030850001308700862500308500A2
:1006E000023087008625003085000430870086258B
:1006F00000308500083087008625013085001030E5
:100700008700862501308500203087008625073048
:1007100085004030870086250430850080308700C2
:100720008625A00B692B3C30A00086250030850073
:10073000013087008625003085000230870086253D
:10074000043085000430870086250030850008309D
:10075000870086250130850010308700862501300E
:1007600085002030870086250730850040308700CF
:10077000862504308500803087008625A00B962BC7
:100780003C30A0008625003085000130870086259A
:100790000030850002308700862504308500043053
:1007A00087008625013085000830870086250130C6
:1007B00085001030870086250130850020308700B5
:1007C000862507308500403087008625003085006B
:1007D000803087008625A00BC32B3C30A0008625E7
:1007E000003085000130870086250030850002300A
:1007F0008700862504308500043087008625033075
:10080000850008308700862501308500103087007C
:10081000862501308500203087008625033085003D
:10082000403087008625003085008030870086258F
:10083000A00BF02B3C30A000862500308500013055
:100840008700862500308500023087008625043029
:100850008500043087008625073085000830870032
:1008600086250130850010308700862501308500FF
:10087000203087008625013085004030870086259E
:1008800000308500803087008625A00B1D2C3C3071
:10089000A0008625203085000130870086250030A5
:1008A00085000230870086250430850004308700EB
:1008B00086250730850008308700862501308500B1
:1008C000103087008625013085002030870086257E
:1008D000013085004030870086250030850080305B
:1008E00087008625A00B4A2C3C30A00086252030AE
:1008F00085000130870086250030850002308700A2
:1009000086250C3085000430870086250730850059
:100910000830870086250130850010308700862545
:10092000013085002030870086250030850040306A
:100930008700862500308500803087008625A00B43
:10094000772C3C30A00086252030850001308700C0
:100950008625083085000230870086250C3085000A
:1009600004308700862507308500083087008625FB
:10097000013085001030870086250030850020304A
:1009800087008625003085004030870086250030AE
:100990008500803087008625A00BA42C3C30A00069
:1009A000862528308500013087008625083085009F
:1009B0000230870086250C308500043087008625AC
:1009C000073085000830870086250030850010300C
:1009D000870086250030850020308700862500307E
:1009E00085004030870086250030850080308700F4
:1009F0008625A00BD12C3C30A00086252830850010
:100A00000130870086250830850002308700862562
:100A10000C308500043087008625073085000830BB
:100A200087008625B030850010308700862520306D
:100A30008500203087008625B03085004030870053
:100A4000862500308500803087008625A00BFE2C8F
:100A50003C30A00086257F30850001308700862548
:100A600041308500023087008625453085000430FE
:100A7000870086257730850008308700862500307E
:100A800085001030870086257F3085002030870064
:100A90008625413085004030870086257F308500DF
:100AA000803087008625A00B2B2D3C30A0008625AA
:100AB000003085000030870086250030850000303A
:100AC00087008625003085000030870086250030AD
:100AD00085000030870086250030850000308700C3
:100AE000862500308500003087008625003085008F
:100AF000003087008625003085000030870086257D
:100B0000A00B582D3C30A00086250F287F30810097
:080B10000B1D882D0B110800DC
:02400E00D420BC
:02401000FF3F70
:00000001FF
